{
  "_format": "hh-sol-artifact-1",
  "contractName": "TokenizedBallot",
  "sourceName": "contracts/TokenizedBallot.sol",
  "abi": [
    {
      "inputs": [
        {
          "internalType": "bytes32[]",
          "name": "_proposalNames",
          "type": "bytes32[]"
        },
        {
          "internalType": "address",
          "name": "_tokenContract",
          "type": "address"
        }
      ],
      "stateMutability": "nonpayable",
      "type": "constructor"
    },
    {
      "inputs": [
        {
          "internalType": "address",
          "name": "account",
          "type": "address"
        }
      ],
      "name": "getVotingPower",
      "outputs": [
        {
          "internalType": "uint256",
          "name": "",
          "type": "uint256"
        }
      ],
      "stateMutability": "view",
      "type": "function"
    },
    {
      "inputs": [
        {
          "internalType": "uint256",
          "name": "",
          "type": "uint256"
        }
      ],
      "name": "proposals",
      "outputs": [
        {
          "internalType": "bytes32",
          "name": "name",
          "type": "bytes32"
        },
        {
          "internalType": "uint256",
          "name": "voteCount",
          "type": "uint256"
        }
      ],
      "stateMutability": "view",
      "type": "function"
    },
    {
      "inputs": [],
      "name": "tokenContract",
      "outputs": [
        {
          "internalType": "contract IMyToken",
          "name": "",
          "type": "address"
        }
      ],
      "stateMutability": "view",
      "type": "function"
    },
    {
      "inputs": [
        {
          "internalType": "uint256",
          "name": "proposal",
          "type": "uint256"
        },
        {
          "internalType": "uint256",
          "name": "amount",
          "type": "uint256"
        }
      ],
      "name": "vote",
      "outputs": [],
      "stateMutability": "nonpayable",
      "type": "function"
    },
    {
      "inputs": [
        {
          "internalType": "address",
          "name": "",
          "type": "address"
        }
      ],
      "name": "votingPowerSpent",
      "outputs": [
        {
          "internalType": "uint256",
          "name": "",
          "type": "uint256"
        }
      ],
      "stateMutability": "view",
      "type": "function"
    },
    {
      "inputs": [],
      "name": "winnerName",
      "outputs": [
        {
          "internalType": "bytes32",
          "name": "winnerName_",
          "type": "bytes32"
        }
      ],
      "stateMutability": "view",
      "type": "function"
    },
    {
      "inputs": [],
      "name": "winningProposal",
      "outputs": [
        {
          "internalType": "uint256",
          "name": "winningProposal_",
          "type": "uint256"
        }
      ],
      "stateMutability": "view",
      "type": "function"
    }
  ],
  "bytecode": "0x60806040523480156200001157600080fd5b5060405162000d4338038062000d43833981810160405281019062000037919062000340565b806000806101000a81548173ffffffffffffffffffffffffffffffffffffffff021916908373ffffffffffffffffffffffffffffffffffffffff16021790555060005b82518110156200010e5760016040518060400160405280858481518110620000a757620000a6620003a6565b5b602002602001015181526020016000815250908060018154018082558091505060019003906000526020600020906002020160009091909190915060008201518160000155602082015181600101555050808062000105906200040e565b9150506200007a565b5050506200045b565b6000604051905090565b600080fd5b600080fd5b600080fd5b6000601f19601f8301169050919050565b7f4e487b7100000000000000000000000000000000000000000000000000000000600052604160045260246000fd5b6200017b8262000130565b810181811067ffffffffffffffff821117156200019d576200019c62000141565b5b80604052505050565b6000620001b262000117565b9050620001c0828262000170565b919050565b600067ffffffffffffffff821115620001e357620001e262000141565b5b602082029050602081019050919050565b600080fd5b6000819050919050565b6200020e81620001f9565b81146200021a57600080fd5b50565b6000815190506200022e8162000203565b92915050565b60006200024b6200024584620001c5565b620001a6565b90508083825260208201905060208402830185811115620002715762000270620001f4565b5b835b818110156200029e57806200028988826200021d565b84526020840193505060208101905062000273565b5050509392505050565b600082601f830112620002c057620002bf6200012b565b5b8151620002d284826020860162000234565b91505092915050565b600073ffffffffffffffffffffffffffffffffffffffff82169050919050565b60006200030882620002db565b9050919050565b6200031a81620002fb565b81146200032657600080fd5b50565b6000815190506200033a816200030f565b92915050565b600080604083850312156200035a576200035962000121565b5b600083015167ffffffffffffffff8111156200037b576200037a62000126565b5b6200038985828601620002a8565b92505060206200039c8582860162000329565b9150509250929050565b7f4e487b7100000000000000000000000000000000000000000000000000000000600052603260045260246000fd5b7f4e487b7100000000000000000000000000000000000000000000000000000000600052601160045260246000fd5b6000819050919050565b60006200041b8262000404565b91507fffffffffffffffffffffffffffffffffffffffffffffffffffffffffffffffff820362000450576200044f620003d5565b5b600182019050919050565b6108d8806200046b6000396000f3fe608060405234801561001057600080fd5b506004361061007d5760003560e01c8063a72003511161005b578063a7200351146100ef578063b384abef1461011f578063bb4d44361461013b578063e2ba53f01461016b5761007d565b8063013cf08b1461008257806355a373d6146100b3578063609ff1bd146100d1575b600080fd5b61009c600480360381019061009791906104e6565b610189565b6040516100aa92919061053b565b60405180910390f35b6100bb6101bd565b6040516100c891906105e3565b60405180910390f35b6100d96101e1565b6040516100e691906105fe565b60405180910390f35b61010960048036038101906101049190610657565b610269565b60405161011691906105fe565b60405180910390f35b61013960048036038101906101349190610684565b610281565b005b61015560048036038101906101509190610657565b6103d3565b60405161016291906105fe565b60405180910390f35b610173610477565b60405161018091906106c4565b60405180910390f35b6001818154811061019957600080fd5b90600052602060002090600202016000915090508060000154908060010154905082565b60008054906101000a900473ffffffffffffffffffffffffffffffffffffffff1681565b6000806000905060005b60018054905081101561026457816001828154811061020d5761020c6106df565b5b90600052602060002090600202016001015411156102515760018181548110610239576102386106df565b5b90600052602060002090600202016001015491508092505b808061025c9061073d565b9150506101eb565b505090565b60026020528060005260406000206000915090505481565b803073ffffffffffffffffffffffffffffffffffffffff1663bb4d4436336040518263ffffffff1660e01b81526004016102bb9190610794565b602060405180830381865afa1580156102d8573d6000803e3d6000fd5b505050506040513d601f19601f820116820180604052508101906102fc91906107c4565b101561033d576040517f08c379a00000000000000000000000000000000000000000000000000000000081526004016103349061084e565b60405180910390fd5b80600260003373ffffffffffffffffffffffffffffffffffffffff1673ffffffffffffffffffffffffffffffffffffffff168152602001908152602001600020600082825461038c919061086e565b9250508190555080600183815481106103a8576103a76106df565b5b906000526020600020906002020160010160008282546103c8919061086e565b925050819055505050565b60008060009054906101000a900473ffffffffffffffffffffffffffffffffffffffff1673ffffffffffffffffffffffffffffffffffffffff16639ab24eb0836040518263ffffffff1660e01b815260040161042f9190610794565b602060405180830381865afa15801561044c573d6000803e3d6000fd5b505050506040513d601f19601f8201168201806040525081019061047091906107c4565b9050919050565b600060016104836101e1565b81548110610494576104936106df565b5b906000526020600020906002020160000154905090565b600080fd5b6000819050919050565b6104c3816104b0565b81146104ce57600080fd5b50565b6000813590506104e0816104ba565b92915050565b6000602082840312156104fc576104fb6104ab565b5b600061050a848285016104d1565b91505092915050565b6000819050919050565b61052681610513565b82525050565b610535816104b0565b82525050565b6000604082019050610550600083018561051d565b61055d602083018461052c565b9392505050565b600073ffffffffffffffffffffffffffffffffffffffff82169050919050565b6000819050919050565b60006105a96105a461059f84610564565b610584565b610564565b9050919050565b60006105bb8261058e565b9050919050565b60006105cd826105b0565b9050919050565b6105dd816105c2565b82525050565b60006020820190506105f860008301846105d4565b92915050565b6000602082019050610613600083018461052c565b92915050565b600061062482610564565b9050919050565b61063481610619565b811461063f57600080fd5b50565b6000813590506106518161062b565b92915050565b60006020828403121561066d5761066c6104ab565b5b600061067b84828501610642565b91505092915050565b6000806040838503121561069b5761069a6104ab565b5b60006106a9858286016104d1565b92505060206106ba858286016104d1565b9150509250929050565b60006020820190506106d9600083018461051d565b92915050565b7f4e487b7100000000000000000000000000000000000000000000000000000000600052603260045260246000fd5b7f4e487b7100000000000000000000000000000000000000000000000000000000600052601160045260246000fd5b6000610748826104b0565b91507fffffffffffffffffffffffffffffffffffffffffffffffffffffffffffffffff820361077a5761077961070e565b5b600182019050919050565b61078e81610619565b82525050565b60006020820190506107a96000830184610785565b92915050565b6000815190506107be816104ba565b92915050565b6000602082840312156107da576107d96104ab565b5b60006107e8848285016107af565b91505092915050565b600082825260208201905092915050565b7f4e6f7420656e6f75676820766f74696e6720706f776572000000000000000000600082015250565b60006108386017836107f1565b915061084382610802565b602082019050919050565b600060208201905081810360008301526108678161082b565b9050919050565b6000610879826104b0565b9150610884836104b0565b925082820190508082111561089c5761089b61070e565b5b9291505056fea2646970667358221220ac2dcdeca009081ebefe407e77679c6da9cc70c53571bd29d470a026bbbc93a964736f6c63430008110033",
  "linkReferences": {},
  "deployedLinkReferences": {}
}