{
  "_format": "hh-sol-artifact-1",
  "contractName": "Lottery",
  "sourceName": "contracts/Lottery.sol",
  "abi": [
    {
      "inputs": [
        {
          "internalType": "string",
          "name": "tokenName",
          "type": "string"
        },
        {
          "internalType": "string",
          "name": "tokenSymbol",
          "type": "string"
        },
        {
          "internalType": "uint256",
          "name": "_purchaseRatio",
          "type": "uint256"
        },
        {
          "internalType": "uint256",
          "name": "_betPrice",
          "type": "uint256"
        },
        {
          "internalType": "uint256",
          "name": "_betFee",
          "type": "uint256"
        }
      ],
      "stateMutability": "nonpayable",
      "type": "constructor"
    },
    {
      "anonymous": false,
      "inputs": [
        {
          "indexed": true,
          "internalType": "address",
          "name": "previousOwner",
          "type": "address"
        },
        {
          "indexed": true,
          "internalType": "address",
          "name": "newOwner",
          "type": "address"
        }
      ],
      "name": "OwnershipTransferred",
      "type": "event"
    },
    {
      "inputs": [],
      "name": "bet",
      "outputs": [],
      "stateMutability": "nonpayable",
      "type": "function"
    },
    {
      "inputs": [],
      "name": "betFee",
      "outputs": [
        {
          "internalType": "uint256",
          "name": "",
          "type": "uint256"
        }
      ],
      "stateMutability": "view",
      "type": "function"
    },
    {
      "inputs": [
        {
          "internalType": "uint256",
          "name": "times",
          "type": "uint256"
        }
      ],
      "name": "betMany",
      "outputs": [],
      "stateMutability": "nonpayable",
      "type": "function"
    },
    {
      "inputs": [],
      "name": "betPrice",
      "outputs": [
        {
          "internalType": "uint256",
          "name": "",
          "type": "uint256"
        }
      ],
      "stateMutability": "view",
      "type": "function"
    },
    {
      "inputs": [],
      "name": "betsClosingTime",
      "outputs": [
        {
          "internalType": "uint256",
          "name": "",
          "type": "uint256"
        }
      ],
      "stateMutability": "view",
      "type": "function"
    },
    {
      "inputs": [],
      "name": "betsOpen",
      "outputs": [
        {
          "internalType": "bool",
          "name": "",
          "type": "bool"
        }
      ],
      "stateMutability": "view",
      "type": "function"
    },
    {
      "inputs": [
        {
          "internalType": "address",
          "name": "player",
          "type": "address"
        }
      ],
      "name": "checkPrize",
      "outputs": [
        {
          "internalType": "uint256",
          "name": "amount",
          "type": "uint256"
        }
      ],
      "stateMutability": "view",
      "type": "function"
    },
    {
      "inputs": [],
      "name": "closeLottery",
      "outputs": [],
      "stateMutability": "nonpayable",
      "type": "function"
    },
    {
      "inputs": [],
      "name": "getRandomNumber",
      "outputs": [
        {
          "internalType": "uint256",
          "name": "randomNumber",
          "type": "uint256"
        }
      ],
      "stateMutability": "view",
      "type": "function"
    },
    {
      "inputs": [
        {
          "internalType": "uint256",
          "name": "closingTime",
          "type": "uint256"
        }
      ],
      "name": "openBets",
      "outputs": [],
      "stateMutability": "nonpayable",
      "type": "function"
    },
    {
      "inputs": [],
      "name": "owner",
      "outputs": [
        {
          "internalType": "address",
          "name": "",
          "type": "address"
        }
      ],
      "stateMutability": "view",
      "type": "function"
    },
    {
      "inputs": [],
      "name": "ownerPool",
      "outputs": [
        {
          "internalType": "uint256",
          "name": "",
          "type": "uint256"
        }
      ],
      "stateMutability": "view",
      "type": "function"
    },
    {
      "inputs": [
        {
          "internalType": "uint256",
          "name": "amount",
          "type": "uint256"
        }
      ],
      "name": "ownerWithdraw",
      "outputs": [],
      "stateMutability": "nonpayable",
      "type": "function"
    },
    {
      "inputs": [],
      "name": "paymentToken",
      "outputs": [
        {
          "internalType": "contract LotteryToken",
          "name": "",
          "type": "address"
        }
      ],
      "stateMutability": "view",
      "type": "function"
    },
    {
      "inputs": [
        {
          "internalType": "address",
          "name": "",
          "type": "address"
        }
      ],
      "name": "prize",
      "outputs": [
        {
          "internalType": "uint256",
          "name": "",
          "type": "uint256"
        }
      ],
      "stateMutability": "view",
      "type": "function"
    },
    {
      "inputs": [],
      "name": "prizePool",
      "outputs": [
        {
          "internalType": "uint256",
          "name": "",
          "type": "uint256"
        }
      ],
      "stateMutability": "view",
      "type": "function"
    },
    {
      "inputs": [
        {
          "internalType": "uint256",
          "name": "amount",
          "type": "uint256"
        }
      ],
      "name": "prizeWithdraw",
      "outputs": [],
      "stateMutability": "nonpayable",
      "type": "function"
    },
    {
      "inputs": [],
      "name": "purchaseRatio",
      "outputs": [
        {
          "internalType": "uint256",
          "name": "",
          "type": "uint256"
        }
      ],
      "stateMutability": "view",
      "type": "function"
    },
    {
      "inputs": [],
      "name": "purchaseTokens",
      "outputs": [],
      "stateMutability": "payable",
      "type": "function"
    },
    {
      "inputs": [],
      "name": "renounceOwnership",
      "outputs": [],
      "stateMutability": "nonpayable",
      "type": "function"
    },
    {
      "inputs": [
        {
          "internalType": "uint256",
          "name": "amount",
          "type": "uint256"
        }
      ],
      "name": "returnTokens",
      "outputs": [],
      "stateMutability": "nonpayable",
      "type": "function"
    },
    {
      "inputs": [
        {
          "internalType": "address",
          "name": "newOwner",
          "type": "address"
        }
      ],
      "name": "transferOwnership",
      "outputs": [],
      "stateMutability": "nonpayable",
      "type": "function"
    }
  ],
  "bytecode": "0x60806040523480156200001157600080fd5b5060405162004a0538038062004a0583398181016040528101906200003791906200039a565b620000576200004b620000f260201b60201c565b620000fa60201b60201c565b84846040516200006790620001be565b62000074929190620004bd565b604051809103906000f08015801562000091573d6000803e3d6000fd5b50600160006101000a81548173ffffffffffffffffffffffffffffffffffffffff021916908373ffffffffffffffffffffffffffffffffffffffff1602179055508260028190555081600381905550806004819055505050505050620004f8565b600033905090565b60008060009054906101000a900473ffffffffffffffffffffffffffffffffffffffff169050816000806101000a81548173ffffffffffffffffffffffffffffffffffffffff021916908373ffffffffffffffffffffffffffffffffffffffff1602179055508173ffffffffffffffffffffffffffffffffffffffff168173ffffffffffffffffffffffffffffffffffffffff167f8be0079c531659141344cd1fd0a4f28419497f9722a3daafe3b4186f6b6457e060405160405180910390a35050565b612c418062001dc483390190565b6000604051905090565b600080fd5b600080fd5b600080fd5b600080fd5b6000601f19601f8301169050919050565b7f4e487b7100000000000000000000000000000000000000000000000000000000600052604160045260246000fd5b6200023582620001ea565b810181811067ffffffffffffffff82111715620002575762000256620001fb565b5b80604052505050565b60006200026c620001cc565b90506200027a82826200022a565b919050565b600067ffffffffffffffff8211156200029d576200029c620001fb565b5b620002a882620001ea565b9050602081019050919050565b60005b83811015620002d5578082015181840152602081019050620002b8565b60008484015250505050565b6000620002f8620002f2846200027f565b62000260565b905082815260208101848484011115620003175762000316620001e5565b5b62000324848285620002b5565b509392505050565b600082601f830112620003445762000343620001e0565b5b815162000356848260208601620002e1565b91505092915050565b6000819050919050565b62000374816200035f565b81146200038057600080fd5b50565b600081519050620003948162000369565b92915050565b600080600080600060a08688031215620003b957620003b8620001d6565b5b600086015167ffffffffffffffff811115620003da57620003d9620001db565b5b620003e8888289016200032c565b955050602086015167ffffffffffffffff8111156200040c576200040b620001db565b5b6200041a888289016200032c565b94505060406200042d8882890162000383565b9350506060620004408882890162000383565b9250506080620004538882890162000383565b9150509295509295909350565b600081519050919050565b600082825260208201905092915050565b6000620004898262000460565b6200049581856200046b565b9350620004a7818560208601620002b5565b620004b281620001ea565b840191505092915050565b60006040820190508181036000830152620004d981856200047c565b90508181036020830152620004ef81846200047c565b90509392505050565b6118bc80620005086000396000f3fe6080604052600436106101355760003560e01c8063719ce73e116100ab57806395cadc471161006f57806395cadc47146103a9578063990a49f5146103d4578063cfd8a175146103fd578063d1b258ff14610428578063dbdff2c114610453578063f2fde38b1461047e57610135565b8063719ce73e146102c2578063729e91e9146102ed578063841e6ce9146103165780638adf9c1f146103415780638da5cb5b1461037e57610135565b806333f707d1116100fd57806333f707d1146101dc5780633ae1786f146102055780633cc121e61461022e578063628a2173146102575780636fd0981614610294578063715018a6146102ab57610135565b806311610c251461013a57806318c34965146101515780632b65e0401461017c5780633013ce29146101a75780633290ce29146101d2575b600080fd5b34801561014657600080fd5b5061014f6104a7565b005b34801561015d57600080fd5b50610166610650565b6040516101739190611004565b60405180910390f35b34801561018857600080fd5b50610191610656565b60405161019e9190611004565b60405180910390f35b3480156101b357600080fd5b506101bc61065c565b6040516101c9919061109e565b60405180910390f35b6101da610682565b005b3480156101e857600080fd5b5061020360048036038101906101fe91906110ea565b610720565b005b34801561021157600080fd5b5061022c600480360381019061022791906110ea565b61082a565b005b34801561023a57600080fd5b50610255600480360381019061025091906110ea565b610910565b005b34801561026357600080fd5b5061027e60048036038101906102799190611155565b610a8c565b60405161028b9190611004565b60405180910390f35b3480156102a057600080fd5b506102a9610ad5565b005b3480156102b757600080fd5b506102c0610c64565b005b3480156102ce57600080fd5b506102d7610c78565b6040516102e49190611004565b60405180910390f35b3480156102f957600080fd5b50610314600480360381019061030f91906110ea565b610c7e565b005b34801561032257600080fd5b5061032b610cb3565b6040516103389190611004565b60405180910390f35b34801561034d57600080fd5b5061036860048036038101906103639190611155565b610cb9565b6040516103759190611004565b60405180910390f35b34801561038a57600080fd5b50610393610cd1565b6040516103a09190611191565b60405180910390f35b3480156103b557600080fd5b506103be610cfa565b6040516103cb9190611004565b60405180910390f35b3480156103e057600080fd5b506103fb60048036038101906103f691906110ea565b610d00565b005b34801561040957600080fd5b50610412610dbf565b60405161041f9190611004565b60405180910390f35b34801561043457600080fd5b5061043d610dc5565b60405161044a91906111c7565b60405180910390f35b34801561045f57600080fd5b50610468610dd8565b6040516104759190611004565b60405180910390f35b34801561048a57600080fd5b506104a560048036038101906104a09190611155565b610de0565b005b600760009054906101000a900460ff1680156104c4575060085442105b610503576040517f08c379a00000000000000000000000000000000000000000000000000000000081526004016104fa9061123f565b60405180910390fd5b60045460066000828254610517919061128e565b9250508190555060035460056000828254610532919061128e565b92505081905550600a339080600181540180825580915050600190039060005260206000200160009091909190916101000a81548173ffffffffffffffffffffffffffffffffffffffff021916908373ffffffffffffffffffffffffffffffffffffffff160217905550600160009054906101000a900473ffffffffffffffffffffffffffffffffffffffff1673ffffffffffffffffffffffffffffffffffffffff166323b872dd33306004546003546105ec919061128e565b6040518463ffffffff1660e01b815260040161060a939291906112c2565b6020604051808303816000875af1158015610629573d6000803e3d6000fd5b505050506040513d601f19601f8201168201806040525081019061064d9190611325565b50565b60085481565b60065481565b600160009054906101000a900473ffffffffffffffffffffffffffffffffffffffff1681565b600160009054906101000a900473ffffffffffffffffffffffffffffffffffffffff1673ffffffffffffffffffffffffffffffffffffffff166340c10f1933600254346106cf9190611352565b6040518363ffffffff1660e01b81526004016106ec929190611394565b600060405180830381600087803b15801561070657600080fd5b505af115801561071a573d6000803e3d6000fd5b50505050565b610728610e63565b60065481111561076d576040517f08c379a000000000000000000000000000000000000000000000000000000000815260040161076490611409565b60405180910390fd5b806006600082825461077f9190611429565b92505081905550600160009054906101000a900473ffffffffffffffffffffffffffffffffffffffff1673ffffffffffffffffffffffffffffffffffffffff1663a9059cbb33836040518363ffffffff1660e01b81526004016107e3929190611394565b6020604051808303816000875af1158015610802573d6000803e3d6000fd5b505050506040513d601f19601f820116820180604052508101906108269190611325565b5050565b600160009054906101000a900473ffffffffffffffffffffffffffffffffffffffff1673ffffffffffffffffffffffffffffffffffffffff166379cc679033836040518363ffffffff1660e01b8152600401610887929190611394565b600060405180830381600087803b1580156108a157600080fd5b505af11580156108b5573d6000803e3d6000fd5b505050503373ffffffffffffffffffffffffffffffffffffffff166108fc600254836108e1919061148c565b9081150290604051600060405180830381858888f1935050505015801561090c573d6000803e3d6000fd5b5050565b600960003373ffffffffffffffffffffffffffffffffffffffff1673ffffffffffffffffffffffffffffffffffffffff16815260200190815260200160002054811115610992576040517f08c379a000000000000000000000000000000000000000000000000000000000815260040161098990611509565b60405180910390fd5b80600960003373ffffffffffffffffffffffffffffffffffffffff1673ffffffffffffffffffffffffffffffffffffffff16815260200190815260200160002060008282546109e19190611429565b92505081905550600160009054906101000a900473ffffffffffffffffffffffffffffffffffffffff1673ffffffffffffffffffffffffffffffffffffffff1663a9059cbb33836040518363ffffffff1660e01b8152600401610a45929190611394565b6020604051808303816000875af1158015610a64573d6000803e3d6000fd5b505050506040513d601f19601f82011682018060405250810190610a889190611325565b5050565b6000600960008373ffffffffffffffffffffffffffffffffffffffff1673ffffffffffffffffffffffffffffffffffffffff168152602001908152602001600020549050919050565b600854421015610b1a576040517f08c379a0000000000000000000000000000000000000000000000000000000008152600401610b1190611575565b60405180910390fd5b600760009054906101000a900460ff16610b69576040517f08c379a0000000000000000000000000000000000000000000000000000000008152600401610b60906115e1565b60405180910390fd5b6000600a805490501115610c47576000600a80549050610b87610dd8565b610b919190611601565b90506000600a8281548110610ba957610ba8611632565b5b9060005260206000200160009054906101000a900473ffffffffffffffffffffffffffffffffffffffff169050600554600960008373ffffffffffffffffffffffffffffffffffffffff1673ffffffffffffffffffffffffffffffffffffffff1681526020019081526020016000206000828254610c27919061128e565b925050819055506000600581905550600a6000610c449190610fad565b50505b6000600760006101000a81548160ff021916908315150217905550565b610c6c610e63565b610c766000610ee1565b565b60055481565b60008111610c8b57600080fd5b5b6000811115610cb057610c9d6104a7565b8080610ca890611661565b915050610c8c565b50565b60045481565b60096020528060005260406000206000915090505481565b60008060009054906101000a900473ffffffffffffffffffffffffffffffffffffffff16905090565b60025481565b610d08610e63565b600760009054906101000a900460ff1615610d58576040517f08c379a0000000000000000000000000000000000000000000000000000000008152600401610d4f906116d6565b60405180910390fd5b428111610d9a576040517f08c379a0000000000000000000000000000000000000000000000000000000008152600401610d9190611768565b60405180910390fd5b806008819055506001600760006101000a81548160ff02191690831515021790555050565b60035481565b600760009054906101000a900460ff1681565b600044905090565b610de8610e63565b600073ffffffffffffffffffffffffffffffffffffffff168173ffffffffffffffffffffffffffffffffffffffff1603610e57576040517f08c379a0000000000000000000000000000000000000000000000000000000008152600401610e4e906117fa565b60405180910390fd5b610e6081610ee1565b50565b610e6b610fa5565b73ffffffffffffffffffffffffffffffffffffffff16610e89610cd1565b73ffffffffffffffffffffffffffffffffffffffff1614610edf576040517f08c379a0000000000000000000000000000000000000000000000000000000008152600401610ed690611866565b60405180910390fd5b565b60008060009054906101000a900473ffffffffffffffffffffffffffffffffffffffff169050816000806101000a81548173ffffffffffffffffffffffffffffffffffffffff021916908373ffffffffffffffffffffffffffffffffffffffff1602179055508173ffffffffffffffffffffffffffffffffffffffff168173ffffffffffffffffffffffffffffffffffffffff167f8be0079c531659141344cd1fd0a4f28419497f9722a3daafe3b4186f6b6457e060405160405180910390a35050565b600033905090565b5080546000825590600052602060002090810190610fcb9190610fce565b50565b5b80821115610fe7576000816000905550600101610fcf565b5090565b6000819050919050565b610ffe81610feb565b82525050565b60006020820190506110196000830184610ff5565b92915050565b600073ffffffffffffffffffffffffffffffffffffffff82169050919050565b6000819050919050565b600061106461105f61105a8461101f565b61103f565b61101f565b9050919050565b600061107682611049565b9050919050565b60006110888261106b565b9050919050565b6110988161107d565b82525050565b60006020820190506110b3600083018461108f565b92915050565b600080fd5b6110c781610feb565b81146110d257600080fd5b50565b6000813590506110e4816110be565b92915050565b600060208284031215611100576110ff6110b9565b5b600061110e848285016110d5565b91505092915050565b60006111228261101f565b9050919050565b61113281611117565b811461113d57600080fd5b50565b60008135905061114f81611129565b92915050565b60006020828403121561116b5761116a6110b9565b5b600061117984828501611140565b91505092915050565b61118b81611117565b82525050565b60006020820190506111a66000830184611182565b92915050565b60008115159050919050565b6111c1816111ac565b82525050565b60006020820190506111dc60008301846111b8565b92915050565b600082825260208201905092915050565b7f4c6f747465727920697320636c6f736564000000000000000000000000000000600082015250565b60006112296011836111e2565b9150611234826111f3565b602082019050919050565b600060208201905081810360008301526112588161121c565b9050919050565b7f4e487b7100000000000000000000000000000000000000000000000000000000600052601160045260246000fd5b600061129982610feb565b91506112a483610feb565b92508282019050808211156112bc576112bb61125f565b5b92915050565b60006060820190506112d76000830186611182565b6112e46020830185611182565b6112f16040830184610ff5565b949350505050565b611302816111ac565b811461130d57600080fd5b50565b60008151905061131f816112f9565b92915050565b60006020828403121561133b5761133a6110b9565b5b600061134984828501611310565b91505092915050565b600061135d82610feb565b915061136883610feb565b925082820261137681610feb565b9150828204841483151761138d5761138c61125f565b5b5092915050565b60006040820190506113a96000830185611182565b6113b66020830184610ff5565b9392505050565b7f4e6f7420656e6f756768206665657320636f6c6c656374656400000000000000600082015250565b60006113f36019836111e2565b91506113fe826113bd565b602082019050919050565b60006020820190508181036000830152611422816113e6565b9050919050565b600061143482610feb565b915061143f83610feb565b92508282039050818111156114575761145661125f565b5b92915050565b7f4e487b7100000000000000000000000000000000000000000000000000000000600052601260045260246000fd5b600061149782610feb565b91506114a283610feb565b9250826114b2576114b161145d565b5b828204905092915050565b7f4e6f7420656e6f756768207072697a6500000000000000000000000000000000600082015250565b60006114f36010836111e2565b91506114fe826114bd565b602082019050919050565b60006020820190508181036000830152611522816114e6565b9050919050565b7f546f6f20736f6f6e20746f20636c6f7365000000000000000000000000000000600082015250565b600061155f6011836111e2565b915061156a82611529565b602082019050919050565b6000602082019050818103600083015261158e81611552565b9050919050565b7f416c726561647920636c6f736564000000000000000000000000000000000000600082015250565b60006115cb600e836111e2565b91506115d682611595565b602082019050919050565b600060208201905081810360008301526115fa816115be565b9050919050565b600061160c82610feb565b915061161783610feb565b9250826116275761162661145d565b5b828206905092915050565b7f4e487b7100000000000000000000000000000000000000000000000000000000600052603260045260246000fd5b600061166c82610feb565b91506000820361167f5761167e61125f565b5b600182039050919050565b7f4c6f7474657279206973206f70656e0000000000000000000000000000000000600082015250565b60006116c0600f836111e2565b91506116cb8261168a565b602082019050919050565b600060208201905081810360008301526116ef816116b3565b9050919050565b7f436c6f73696e672074696d65206d75737420626520696e20746865206675747560008201527f7265000000000000000000000000000000000000000000000000000000000000602082015250565b60006117526022836111e2565b915061175d826116f6565b604082019050919050565b6000602082019050818103600083015261178181611745565b9050919050565b7f4f776e61626c653a206e6577206f776e657220697320746865207a65726f206160008201527f6464726573730000000000000000000000000000000000000000000000000000602082015250565b60006117e46026836111e2565b91506117ef82611788565b604082019050919050565b60006020820190508181036000830152611813816117d7565b9050919050565b7f4f776e61626c653a2063616c6c6572206973206e6f7420746865206f776e6572600082015250565b60006118506020836111e2565b915061185b8261181a565b602082019050919050565b6000602082019050818103600083015261187f81611843565b905091905056fea264697066735822122029da735f3cbb1de1590f1a38299f50156aa4997f325ebb988d27abb9612a4db264736f6c6343000811003360806040523480156200001157600080fd5b5060405162002c4138038062002c418339818101604052810190620000379190620003a6565b818181600390816200004a919062000676565b5080600490816200005c919062000676565b505050620000746000801b33620000ae60201b60201c565b620000a67f9f2df0fed2c77648de5860a4cc508cd0818c85b8b8a1ab4ceeef8d981c8956a633620000ae60201b60201c565b50506200075d565b620000c08282620001a060201b60201c565b6200019c5760016005600084815260200190815260200160002060000160008373ffffffffffffffffffffffffffffffffffffffff1673ffffffffffffffffffffffffffffffffffffffff16815260200190815260200160002060006101000a81548160ff021916908315150217905550620001416200020b60201b60201c565b73ffffffffffffffffffffffffffffffffffffffff168173ffffffffffffffffffffffffffffffffffffffff16837f2f8788117e7eff1d82e926ec794901d17c78024a50270940304540a733656f0d60405160405180910390a45b5050565b60006005600084815260200190815260200160002060000160008373ffffffffffffffffffffffffffffffffffffffff1673ffffffffffffffffffffffffffffffffffffffff16815260200190815260200160002060009054906101000a900460ff16905092915050565b600033905090565b6000604051905090565b600080fd5b600080fd5b600080fd5b600080fd5b6000601f19601f8301169050919050565b7f4e487b7100000000000000000000000000000000000000000000000000000000600052604160045260246000fd5b6200027c8262000231565b810181811067ffffffffffffffff821117156200029e576200029d62000242565b5b80604052505050565b6000620002b362000213565b9050620002c1828262000271565b919050565b600067ffffffffffffffff821115620002e457620002e362000242565b5b620002ef8262000231565b9050602081019050919050565b60005b838110156200031c578082015181840152602081019050620002ff565b60008484015250505050565b60006200033f6200033984620002c6565b620002a7565b9050828152602081018484840111156200035e576200035d6200022c565b5b6200036b848285620002fc565b509392505050565b600082601f8301126200038b576200038a62000227565b5b81516200039d84826020860162000328565b91505092915050565b60008060408385031215620003c057620003bf6200021d565b5b600083015167ffffffffffffffff811115620003e157620003e062000222565b5b620003ef8582860162000373565b925050602083015167ffffffffffffffff81111562000413576200041262000222565b5b620004218582860162000373565b9150509250929050565b600081519050919050565b7f4e487b7100000000000000000000000000000000000000000000000000000000600052602260045260246000fd5b600060028204905060018216806200047e57607f821691505b60208210810362000494576200049362000436565b5b50919050565b60008190508160005260206000209050919050565b60006020601f8301049050919050565b600082821b905092915050565b600060088302620004fe7fffffffffffffffffffffffffffffffffffffffffffffffffffffffffffffffff82620004bf565b6200050a8683620004bf565b95508019841693508086168417925050509392505050565b6000819050919050565b6000819050919050565b600062000557620005516200054b8462000522565b6200052c565b62000522565b9050919050565b6000819050919050565b620005738362000536565b6200058b62000582826200055e565b848454620004cc565b825550505050565b600090565b620005a262000593565b620005af81848462000568565b505050565b5b81811015620005d757620005cb60008262000598565b600181019050620005b5565b5050565b601f8211156200062657620005f0816200049a565b620005fb84620004af565b810160208510156200060b578190505b620006236200061a85620004af565b830182620005b4565b50505b505050565b600082821c905092915050565b60006200064b600019846008026200062b565b1980831691505092915050565b600062000666838362000638565b9150826002028217905092915050565b62000681826200042b565b67ffffffffffffffff8111156200069d576200069c62000242565b5b620006a9825462000465565b620006b6828285620005db565b600060209050601f831160018114620006ee5760008415620006d9578287015190505b620006e5858262000658565b86555062000755565b601f198416620006fe866200049a565b60005b82811015620007285784890151825560018201915060208501945060208101905062000701565b8683101562000748578489015162000744601f89168262000638565b8355505b6001600288020188555050505b505050505050565b6124d4806200076d6000396000f3fe608060405234801561001057600080fd5b50600436106101425760003560e01c806342966c68116100b8578063a217fddf1161007c578063a217fddf1461039b578063a457c2d7146103b9578063a9059cbb146103e9578063d539139314610419578063d547741f14610437578063dd62ed3e1461045357610142565b806342966c68146102e557806370a082311461030157806379cc67901461033157806391d148541461034d57806395d89b411461037d57610142565b8063248a9ca31161010a578063248a9ca3146102135780632f2ff15d14610243578063313ce5671461025f57806336568abe1461027d578063395093511461029957806340c10f19146102c957610142565b806301ffc9a71461014757806306fdde0314610177578063095ea7b31461019557806318160ddd146101c557806323b872dd146101e3575b600080fd5b610161600480360381019061015c919061179a565b610483565b60405161016e91906117e2565b60405180910390f35b61017f6104fd565b60405161018c919061188d565b60405180910390f35b6101af60048036038101906101aa9190611943565b61058f565b6040516101bc91906117e2565b60405180910390f35b6101cd6105b2565b6040516101da9190611992565b60405180910390f35b6101fd60048036038101906101f891906119ad565b6105bc565b60405161020a91906117e2565b60405180910390f35b61022d60048036038101906102289190611a36565b6105eb565b60405161023a9190611a72565b60405180910390f35b61025d60048036038101906102589190611a8d565b61060b565b005b61026761062c565b6040516102749190611ae9565b60405180910390f35b61029760048036038101906102929190611a8d565b610635565b005b6102b360048036038101906102ae9190611943565b6106b8565b6040516102c091906117e2565b60405180910390f35b6102e360048036038101906102de9190611943565b6106ef565b005b6102ff60048036038101906102fa9190611b04565b610728565b005b61031b60048036038101906103169190611b31565b61073c565b6040516103289190611992565b60405180910390f35b61034b60048036038101906103469190611943565b610784565b005b61036760048036038101906103629190611a8d565b6107a4565b60405161037491906117e2565b60405180910390f35b61038561080f565b604051610392919061188d565b60405180910390f35b6103a36108a1565b6040516103b09190611a72565b60405180910390f35b6103d360048036038101906103ce9190611943565b6108a8565b6040516103e091906117e2565b60405180910390f35b61040360048036038101906103fe9190611943565b61091f565b60405161041091906117e2565b60405180910390f35b610421610942565b60405161042e9190611a72565b60405180910390f35b610451600480360381019061044c9190611a8d565b610966565b005b61046d60048036038101906104689190611b5e565b610987565b60405161047a9190611992565b60405180910390f35b60007f7965db0b000000000000000000000000000000000000000000000000000000007bffffffffffffffffffffffffffffffffffffffffffffffffffffffff1916827bffffffffffffffffffffffffffffffffffffffffffffffffffffffff191614806104f657506104f582610a0e565b5b9050919050565b60606003805461050c90611bcd565b80601f016020809104026020016040519081016040528092919081815260200182805461053890611bcd565b80156105855780601f1061055a57610100808354040283529160200191610585565b820191906000526020600020905b81548152906001019060200180831161056857829003601f168201915b5050505050905090565b60008061059a610a78565b90506105a7818585610a80565b600191505092915050565b6000600254905090565b6000806105c7610a78565b90506105d4858285610c49565b6105df858585610cd5565b60019150509392505050565b600060056000838152602001908152602001600020600101549050919050565b610614826105eb565b61061d81610f4b565b6106278383610f5f565b505050565b60006012905090565b61063d610a78565b73ffffffffffffffffffffffffffffffffffffffff168173ffffffffffffffffffffffffffffffffffffffff16146106aa576040517f08c379a00000000000000000000000000000000000000000000000000000000081526004016106a190611c70565b60405180910390fd5b6106b48282611040565b5050565b6000806106c3610a78565b90506106e48185856106d58589610987565b6106df9190611cbf565b610a80565b600191505092915050565b7f9f2df0fed2c77648de5860a4cc508cd0818c85b8b8a1ab4ceeef8d981c8956a661071981610f4b565b6107238383611122565b505050565b610739610733610a78565b82611278565b50565b60008060008373ffffffffffffffffffffffffffffffffffffffff1673ffffffffffffffffffffffffffffffffffffffff168152602001908152602001600020549050919050565b61079682610790610a78565b83610c49565b6107a08282611278565b5050565b60006005600084815260200190815260200160002060000160008373ffffffffffffffffffffffffffffffffffffffff1673ffffffffffffffffffffffffffffffffffffffff16815260200190815260200160002060009054906101000a900460ff16905092915050565b60606004805461081e90611bcd565b80601f016020809104026020016040519081016040528092919081815260200182805461084a90611bcd565b80156108975780601f1061086c57610100808354040283529160200191610897565b820191906000526020600020905b81548152906001019060200180831161087a57829003601f168201915b5050505050905090565b6000801b81565b6000806108b3610a78565b905060006108c18286610987565b905083811015610906576040517f08c379a00000000000000000000000000000000000000000000000000000000081526004016108fd90611d65565b60405180910390fd5b6109138286868403610a80565b60019250505092915050565b60008061092a610a78565b9050610937818585610cd5565b600191505092915050565b7f9f2df0fed2c77648de5860a4cc508cd0818c85b8b8a1ab4ceeef8d981c8956a681565b61096f826105eb565b61097881610f4b565b6109828383611040565b505050565b6000600160008473ffffffffffffffffffffffffffffffffffffffff1673ffffffffffffffffffffffffffffffffffffffff16815260200190815260200160002060008373ffffffffffffffffffffffffffffffffffffffff1673ffffffffffffffffffffffffffffffffffffffff16815260200190815260200160002054905092915050565b60007f01ffc9a7000000000000000000000000000000000000000000000000000000007bffffffffffffffffffffffffffffffffffffffffffffffffffffffff1916827bffffffffffffffffffffffffffffffffffffffffffffffffffffffff1916149050919050565b600033905090565b600073ffffffffffffffffffffffffffffffffffffffff168373ffffffffffffffffffffffffffffffffffffffff1603610aef576040517f08c379a0000000000000000000000000000000000000000000000000000000008152600401610ae690611df7565b60405180910390fd5b600073ffffffffffffffffffffffffffffffffffffffff168273ffffffffffffffffffffffffffffffffffffffff1603610b5e576040517f08c379a0000000000000000000000000000000000000000000000000000000008152600401610b5590611e89565b60405180910390fd5b80600160008573ffffffffffffffffffffffffffffffffffffffff1673ffffffffffffffffffffffffffffffffffffffff16815260200190815260200160002060008473ffffffffffffffffffffffffffffffffffffffff1673ffffffffffffffffffffffffffffffffffffffff168152602001908152602001600020819055508173ffffffffffffffffffffffffffffffffffffffff168373ffffffffffffffffffffffffffffffffffffffff167f8c5be1e5ebec7d5bd14f71427d1e84f3dd0314c0f7b2291e5b200ac8c7c3b92583604051610c3c9190611992565b60405180910390a3505050565b6000610c558484610987565b90507fffffffffffffffffffffffffffffffffffffffffffffffffffffffffffffffff8114610ccf5781811015610cc1576040517f08c379a0000000000000000000000000000000000000000000000000000000008152600401610cb890611ef5565b60405180910390fd5b610cce8484848403610a80565b5b50505050565b600073ffffffffffffffffffffffffffffffffffffffff168373ffffffffffffffffffffffffffffffffffffffff1603610d44576040517f08c379a0000000000000000000000000000000000000000000000000000000008152600401610d3b90611f87565b60405180910390fd5b600073ffffffffffffffffffffffffffffffffffffffff168273ffffffffffffffffffffffffffffffffffffffff1603610db3576040517f08c379a0000000000000000000000000000000000000000000000000000000008152600401610daa90612019565b60405180910390fd5b610dbe838383611445565b60008060008573ffffffffffffffffffffffffffffffffffffffff1673ffffffffffffffffffffffffffffffffffffffff16815260200190815260200160002054905081811015610e44576040517f08c379a0000000000000000000000000000000000000000000000000000000008152600401610e3b906120ab565b60405180910390fd5b8181036000808673ffffffffffffffffffffffffffffffffffffffff1673ffffffffffffffffffffffffffffffffffffffff16815260200190815260200160002081905550816000808573ffffffffffffffffffffffffffffffffffffffff1673ffffffffffffffffffffffffffffffffffffffff168152602001908152602001600020600082825401925050819055508273ffffffffffffffffffffffffffffffffffffffff168473ffffffffffffffffffffffffffffffffffffffff167fddf252ad1be2c89b69c2b068fc378daa952ba7f163c4a11628f55a4df523b3ef84604051610f329190611992565b60405180910390a3610f4584848461144a565b50505050565b610f5c81610f57610a78565b61144f565b50565b610f6982826107a4565b61103c5760016005600084815260200190815260200160002060000160008373ffffffffffffffffffffffffffffffffffffffff1673ffffffffffffffffffffffffffffffffffffffff16815260200190815260200160002060006101000a81548160ff021916908315150217905550610fe1610a78565b73ffffffffffffffffffffffffffffffffffffffff168173ffffffffffffffffffffffffffffffffffffffff16837f2f8788117e7eff1d82e926ec794901d17c78024a50270940304540a733656f0d60405160405180910390a45b5050565b61104a82826107a4565b1561111e5760006005600084815260200190815260200160002060000160008373ffffffffffffffffffffffffffffffffffffffff1673ffffffffffffffffffffffffffffffffffffffff16815260200190815260200160002060006101000a81548160ff0219169083151502179055506110c3610a78565b73ffffffffffffffffffffffffffffffffffffffff168173ffffffffffffffffffffffffffffffffffffffff16837ff6391f5c32d9c69d2a47ea670b442974b53935d1edc7fd64eb21e047a839171b60405160405180910390a45b5050565b600073ffffffffffffffffffffffffffffffffffffffff168273ffffffffffffffffffffffffffffffffffffffff1603611191576040517f08c379a000000000000000000000000000000000000000000000000000000000815260040161118890612117565b60405180910390fd5b61119d60008383611445565b80600260008282546111af9190611cbf565b92505081905550806000808473ffffffffffffffffffffffffffffffffffffffff1673ffffffffffffffffffffffffffffffffffffffff168152602001908152602001600020600082825401925050819055508173ffffffffffffffffffffffffffffffffffffffff16600073ffffffffffffffffffffffffffffffffffffffff167fddf252ad1be2c89b69c2b068fc378daa952ba7f163c4a11628f55a4df523b3ef836040516112609190611992565b60405180910390a36112746000838361144a565b5050565b600073ffffffffffffffffffffffffffffffffffffffff168273ffffffffffffffffffffffffffffffffffffffff16036112e7576040517f08c379a00000000000000000000000000000000000000000000000000000000081526004016112de906121a9565b60405180910390fd5b6112f382600083611445565b60008060008473ffffffffffffffffffffffffffffffffffffffff1673ffffffffffffffffffffffffffffffffffffffff16815260200190815260200160002054905081811015611379576040517f08c379a00000000000000000000000000000000000000000000000000000000081526004016113709061223b565b60405180910390fd5b8181036000808573ffffffffffffffffffffffffffffffffffffffff1673ffffffffffffffffffffffffffffffffffffffff1681526020019081526020016000208190555081600260008282540392505081905550600073ffffffffffffffffffffffffffffffffffffffff168373ffffffffffffffffffffffffffffffffffffffff167fddf252ad1be2c89b69c2b068fc378daa952ba7f163c4a11628f55a4df523b3ef8460405161142c9190611992565b60405180910390a36114408360008461144a565b505050565b505050565b505050565b61145982826107a4565b6114d057611466816114d4565b6114748360001c6020611501565b60405160200161148592919061232f565b6040516020818303038152906040526040517f08c379a00000000000000000000000000000000000000000000000000000000081526004016114c7919061188d565b60405180910390fd5b5050565b60606114fa8273ffffffffffffffffffffffffffffffffffffffff16601460ff16611501565b9050919050565b6060600060028360026115149190612369565b61151e9190611cbf565b67ffffffffffffffff811115611537576115366123ab565b5b6040519080825280601f01601f1916602001820160405280156115695781602001600182028036833780820191505090505b5090507f3000000000000000000000000000000000000000000000000000000000000000816000815181106115a1576115a06123da565b5b60200101907effffffffffffffffffffffffffffffffffffffffffffffffffffffffffffff1916908160001a9053507f780000000000000000000000000000000000000000000000000000000000000081600181518110611605576116046123da565b5b60200101907effffffffffffffffffffffffffffffffffffffffffffffffffffffffffffff1916908160001a905350600060018460026116459190612369565b61164f9190611cbf565b90505b60018111156116ef577f3031323334353637383961626364656600000000000000000000000000000000600f861660108110611691576116906123da565b5b1a60f81b8282815181106116a8576116a76123da565b5b60200101907effffffffffffffffffffffffffffffffffffffffffffffffffffffffffffff1916908160001a905350600485901c9450806116e890612409565b9050611652565b5060008414611733576040517f08c379a000000000000000000000000000000000000000000000000000000000815260040161172a9061247e565b60405180910390fd5b8091505092915050565b600080fd5b60007fffffffff0000000000000000000000000000000000000000000000000000000082169050919050565b61177781611742565b811461178257600080fd5b50565b6000813590506117948161176e565b92915050565b6000602082840312156117b0576117af61173d565b5b60006117be84828501611785565b91505092915050565b60008115159050919050565b6117dc816117c7565b82525050565b60006020820190506117f760008301846117d3565b92915050565b600081519050919050565b600082825260208201905092915050565b60005b8381101561183757808201518184015260208101905061181c565b60008484015250505050565b6000601f19601f8301169050919050565b600061185f826117fd565b6118698185611808565b9350611879818560208601611819565b61188281611843565b840191505092915050565b600060208201905081810360008301526118a78184611854565b905092915050565b600073ffffffffffffffffffffffffffffffffffffffff82169050919050565b60006118da826118af565b9050919050565b6118ea816118cf565b81146118f557600080fd5b50565b600081359050611907816118e1565b92915050565b6000819050919050565b6119208161190d565b811461192b57600080fd5b50565b60008135905061193d81611917565b92915050565b6000806040838503121561195a5761195961173d565b5b6000611968858286016118f8565b92505060206119798582860161192e565b9150509250929050565b61198c8161190d565b82525050565b60006020820190506119a76000830184611983565b92915050565b6000806000606084860312156119c6576119c561173d565b5b60006119d4868287016118f8565b93505060206119e5868287016118f8565b92505060406119f68682870161192e565b9150509250925092565b6000819050919050565b611a1381611a00565b8114611a1e57600080fd5b50565b600081359050611a3081611a0a565b92915050565b600060208284031215611a4c57611a4b61173d565b5b6000611a5a84828501611a21565b91505092915050565b611a6c81611a00565b82525050565b6000602082019050611a876000830184611a63565b92915050565b60008060408385031215611aa457611aa361173d565b5b6000611ab285828601611a21565b9250506020611ac3858286016118f8565b9150509250929050565b600060ff82169050919050565b611ae381611acd565b82525050565b6000602082019050611afe6000830184611ada565b92915050565b600060208284031215611b1a57611b1961173d565b5b6000611b288482850161192e565b91505092915050565b600060208284031215611b4757611b4661173d565b5b6000611b55848285016118f8565b91505092915050565b60008060408385031215611b7557611b7461173d565b5b6000611b83858286016118f8565b9250506020611b94858286016118f8565b9150509250929050565b7f4e487b7100000000000000000000000000000000000000000000000000000000600052602260045260246000fd5b60006002820490506001821680611be557607f821691505b602082108103611bf857611bf7611b9e565b5b50919050565b7f416363657373436f6e74726f6c3a2063616e206f6e6c792072656e6f756e636560008201527f20726f6c657320666f722073656c660000000000000000000000000000000000602082015250565b6000611c5a602f83611808565b9150611c6582611bfe565b604082019050919050565b60006020820190508181036000830152611c8981611c4d565b9050919050565b7f4e487b7100000000000000000000000000000000000000000000000000000000600052601160045260246000fd5b6000611cca8261190d565b9150611cd58361190d565b9250828201905080821115611ced57611cec611c90565b5b92915050565b7f45524332303a2064656372656173656420616c6c6f77616e63652062656c6f7760008201527f207a65726f000000000000000000000000000000000000000000000000000000602082015250565b6000611d4f602583611808565b9150611d5a82611cf3565b604082019050919050565b60006020820190508181036000830152611d7e81611d42565b9050919050565b7f45524332303a20617070726f76652066726f6d20746865207a65726f2061646460008201527f7265737300000000000000000000000000000000000000000000000000000000602082015250565b6000611de1602483611808565b9150611dec82611d85565b604082019050919050565b60006020820190508181036000830152611e1081611dd4565b9050919050565b7f45524332303a20617070726f766520746f20746865207a65726f20616464726560008201527f7373000000000000000000000000000000000000000000000000000000000000602082015250565b6000611e73602283611808565b9150611e7e82611e17565b604082019050919050565b60006020820190508181036000830152611ea281611e66565b9050919050565b7f45524332303a20696e73756666696369656e7420616c6c6f77616e6365000000600082015250565b6000611edf601d83611808565b9150611eea82611ea9565b602082019050919050565b60006020820190508181036000830152611f0e81611ed2565b9050919050565b7f45524332303a207472616e736665722066726f6d20746865207a65726f20616460008201527f6472657373000000000000000000000000000000000000000000000000000000602082015250565b6000611f71602583611808565b9150611f7c82611f15565b604082019050919050565b60006020820190508181036000830152611fa081611f64565b9050919050565b7f45524332303a207472616e7366657220746f20746865207a65726f206164647260008201527f6573730000000000000000000000000000000000000000000000000000000000602082015250565b6000612003602383611808565b915061200e82611fa7565b604082019050919050565b6000602082019050818103600083015261203281611ff6565b9050919050565b7f45524332303a207472616e7366657220616d6f756e742065786365656473206260008201527f616c616e63650000000000000000000000000000000000000000000000000000602082015250565b6000612095602683611808565b91506120a082612039565b604082019050919050565b600060208201905081810360008301526120c481612088565b9050919050565b7f45524332303a206d696e7420746f20746865207a65726f206164647265737300600082015250565b6000612101601f83611808565b915061210c826120cb565b602082019050919050565b60006020820190508181036000830152612130816120f4565b9050919050565b7f45524332303a206275726e2066726f6d20746865207a65726f2061646472657360008201527f7300000000000000000000000000000000000000000000000000000000000000602082015250565b6000612193602183611808565b915061219e82612137565b604082019050919050565b600060208201905081810360008301526121c281612186565b9050919050565b7f45524332303a206275726e20616d6f756e7420657863656564732062616c616e60008201527f6365000000000000000000000000000000000000000000000000000000000000602082015250565b6000612225602283611808565b9150612230826121c9565b604082019050919050565b6000602082019050818103600083015261225481612218565b9050919050565b600081905092915050565b7f416363657373436f6e74726f6c3a206163636f756e7420000000000000000000600082015250565b600061229c60178361225b565b91506122a782612266565b601782019050919050565b60006122bd826117fd565b6122c7818561225b565b93506122d7818560208601611819565b80840191505092915050565b7f206973206d697373696e6720726f6c6520000000000000000000000000000000600082015250565b600061231960118361225b565b9150612324826122e3565b601182019050919050565b600061233a8261228f565b915061234682856122b2565b91506123518261230c565b915061235d82846122b2565b91508190509392505050565b60006123748261190d565b915061237f8361190d565b925082820261238d8161190d565b915082820484148315176123a4576123a3611c90565b5b5092915050565b7f4e487b7100000000000000000000000000000000000000000000000000000000600052604160045260246000fd5b7f4e487b7100000000000000000000000000000000000000000000000000000000600052603260045260246000fd5b60006124148261190d565b91506000820361242757612426611c90565b5b600182039050919050565b7f537472696e67733a20686578206c656e67746820696e73756666696369656e74600082015250565b6000612468602083611808565b915061247382612432565b602082019050919050565b600060208201905081810360008301526124978161245b565b905091905056fea264697066735822122030fdd89b56570a2de4be45d4f0d4dd4953a62f3e297a15ef9101dd6db6cb1d3864736f6c63430008110033",
  "linkReferences": {},
  "deployedLinkReferences": {}
}