{
  "_format": "hh-sol-artifact-1",
  "contractName": "SmartHealth",
  "sourceName": "contracts/SmartHealth.sol",
  "abi": [
    {
      "inputs": [
        {
          "internalType": "bytes32[]",
          "name": "patientInfo",
          "type": "bytes32[]"
        }
      ],
      "stateMutability": "nonpayable",
      "type": "constructor"
    },
    {
      "inputs": [
        {
          "internalType": "bytes32[]",
          "name": "providerInfo",
          "type": "bytes32[]"
        }
      ],
      "name": "authorizeProvider",
      "outputs": [],
      "stateMutability": "nonpayable",
      "type": "function"
    },
    {
      "inputs": [],
      "name": "getPatientSummary",
      "outputs": [
        {
          "components": [
            {
              "internalType": "bytes32",
              "name": "name",
              "type": "bytes32"
            },
            {
              "internalType": "bytes32",
              "name": "age",
              "type": "bytes32"
            },
            {
              "internalType": "bytes32",
              "name": "birthSex",
              "type": "bytes32"
            },
            {
              "internalType": "bytes32",
              "name": "weight",
              "type": "bytes32"
            },
            {
              "internalType": "bytes32",
              "name": "height",
              "type": "bytes32"
            }
          ],
          "internalType": "struct SmartHealth.PatientSummary",
          "name": "",
          "type": "tuple"
        }
      ],
      "stateMutability": "view",
      "type": "function"
    },
    {
      "inputs": [
        {
          "internalType": "bytes32[]",
          "name": "requestorInfo",
          "type": "bytes32[]"
        }
      ],
      "name": "getPatientSummaryHCP",
      "outputs": [
        {
          "components": [
            {
              "internalType": "bytes32",
              "name": "name",
              "type": "bytes32"
            },
            {
              "internalType": "bytes32",
              "name": "age",
              "type": "bytes32"
            },
            {
              "internalType": "bytes32",
              "name": "birthSex",
              "type": "bytes32"
            },
            {
              "internalType": "bytes32",
              "name": "weight",
              "type": "bytes32"
            },
            {
              "internalType": "bytes32",
              "name": "height",
              "type": "bytes32"
            }
          ],
          "internalType": "struct SmartHealth.PatientSummary",
          "name": "",
          "type": "tuple"
        }
      ],
      "stateMutability": "view",
      "type": "function"
    },
    {
      "inputs": [],
      "name": "getPatientVitals",
      "outputs": [
        {
          "components": [
            {
              "internalType": "bytes32",
              "name": "heartRate",
              "type": "bytes32"
            },
            {
              "internalType": "bytes32",
              "name": "bloodPressure",
              "type": "bytes32"
            },
            {
              "internalType": "bytes32",
              "name": "oxygenSat",
              "type": "bytes32"
            },
            {
              "internalType": "bytes32",
              "name": "temperature",
              "type": "bytes32"
            }
          ],
          "internalType": "struct SmartHealth.PatientVitals",
          "name": "",
          "type": "tuple"
        }
      ],
      "stateMutability": "view",
      "type": "function"
    },
    {
      "inputs": [
        {
          "internalType": "bytes32[]",
          "name": "requestorInfo",
          "type": "bytes32[]"
        }
      ],
      "name": "getPatientVitalsHCP",
      "outputs": [
        {
          "components": [
            {
              "internalType": "bytes32",
              "name": "heartRate",
              "type": "bytes32"
            },
            {
              "internalType": "bytes32",
              "name": "bloodPressure",
              "type": "bytes32"
            },
            {
              "internalType": "bytes32",
              "name": "oxygenSat",
              "type": "bytes32"
            },
            {
              "internalType": "bytes32",
              "name": "temperature",
              "type": "bytes32"
            }
          ],
          "internalType": "struct SmartHealth.PatientVitals",
          "name": "",
          "type": "tuple"
        }
      ],
      "stateMutability": "view",
      "type": "function"
    }
  ],
  "bytecode": "0x608060405234801561001057600080fd5b5060405161079338038061079383398101604081905261002f9161019b565b600080546001600160a01b03191633178155815182919061005257610052610258565b60200260200101516002600001819055508060018151811061007657610076610258565b60200260200101516002600101819055508060028151811061009a5761009a610258565b60200260200101516002800181905550806003815181106100bd576100bd610258565b6020026020010151600260030181905550806004815181106100e1576100e1610258565b60200260200101516002600401819055508060058151811061010557610105610258565b60200260200101516007600001819055508060068151811061012957610129610258565b60200260200101516007600101819055508060078151811061014d5761014d610258565b60200260200101516007600201819055508060088151811061017157610171610258565b6020908102919091010151600a555061026e565b634e487b7160e01b600052604160045260246000fd5b600060208083850312156101ae57600080fd5b82516001600160401b03808211156101c557600080fd5b818501915085601f8301126101d957600080fd5b8151818111156101eb576101eb610185565b8060051b604051601f19603f8301168101818110858211171561021057610210610185565b60405291825284820192508381018501918883111561022e57600080fd5b938501935b8285101561024c57845184529385019392850192610233565b98975050505050505050565b634e487b7160e01b600052603260045260246000fd5b6105168061027d6000396000f3fe608060405234801561001057600080fd5b50600436106100575760003560e01c8063503a5f2f1461005c5780636f0a9493146100a0578063a7c6b37b146100b3578063b690a8c5146100fd578063d6f069e314610110575b600080fd5b610064610125565b60405161009791908151815260208083015190820152604080830151908201526060918201519181019190915260800190565b60405180910390f35b6100646100ae36600461040c565b61018d565b6100bb61022d565b6040516100979190600060a082019050825182526020830151602083015260408301516040830152606083015160608301526080830151608083015292915050565b6100bb61010b36600461040c565b610281565b61012361011e36600461040c565b61030d565b005b6040805160808101825260008082526020820181905291810182905260608101919091526000546001600160a01b0316331461016057600080fd5b50604080516080810182526007548152600854602082015260095491810191909152600a54606082015290565b60408051608081018252600080825260208201819052918101829052606081019190915281806000815181106101c5576101c56104ca565b6020026020010151600b6000815481106101e1576101e16104ca565b906000526020600020906003020160000154146101fd57600080fd5b5050604080516080810182526007548152600854602082015260095491810191909152600a546060820152919050565b6102356103c8565b6000546001600160a01b0316331461024c57600080fd5b506040805160a08101825260025481526003546020820152600454918101919091526005546060820152600654608082015290565b6102896103c8565b818060008151811061029d5761029d6104ca565b6020026020010151600b6000815481106102b9576102b96104ca565b906000526020600020906003020160000154146102d557600080fd5b50506040805160a081018252600254815260035460208201526004549181019190915260055460608201526006546080820152919050565b6000546001600160a01b0316331461032457600080fd5b600b604051806060016040528083600081518110610344576103446104ca565b6020026020010151815260200183600181518110610364576103646104ca565b6020026020010151815260200183600281518110610384576103846104ca565b602090810291909101810151909152825460018181018555600094855293829020835160039092020190815590820151928101929092556040015160029091015550565b6040805160a08101825260008082526020820181905291810182905260608101829052608081019190915290565b634e487b7160e01b600052604160045260246000fd5b6000602080838503121561041f57600080fd5b823567ffffffffffffffff8082111561043757600080fd5b818501915085601f83011261044b57600080fd5b81358181111561045d5761045d6103f6565b8060051b604051601f19603f83011681018181108582111715610482576104826103f6565b6040529182528482019250838101850191888311156104a057600080fd5b938501935b828510156104be578435845293850193928501926104a5565b98975050505050505050565b634e487b7160e01b600052603260045260246000fdfea2646970667358221220941949a253d59f6629df9dddad4404deecb4a7691a69f2bb73bc01b00d96ae7f64736f6c63430008090033",
  "linkReferences": {},
  "deployedLinkReferences": {}
}