{"contracts/SmartHealth.sol":{"SmartHealth":{"abi":[{"inputs":[{"internalType":"bytes32[]","name":"patientInfo","type":"bytes32[]"}],"stateMutability":"nonpayable","type":"constructor"},{"inputs":[{"internalType":"bytes32[]","name":"providerInfo","type":"bytes32[]"}],"name":"authorizeProvider","outputs":[],"stateMutability":"nonpayable","type":"function"},{"inputs":[],"name":"getPatientSummary","outputs":[{"components":[{"internalType":"bytes32","name":"name","type":"bytes32"},{"internalType":"bytes32","name":"age","type":"bytes32"},{"internalType":"bytes32","name":"birthSex","type":"bytes32"},{"internalType":"bytes32","name":"weight","type":"bytes32"}],"internalType":"struct SmartHealth.PatientSummary","name":"","type":"tuple"}],"stateMutability":"view","type":"function"},{"inputs":[{"internalType":"bytes32[]","name":"requestorInfo","type":"bytes32[]"}],"name":"getPatientSummaryHCP","outputs":[{"components":[{"internalType":"bytes32","name":"name","type":"bytes32"},{"internalType":"bytes32","name":"age","type":"bytes32"},{"internalType":"bytes32","name":"birthSex","type":"bytes32"},{"internalType":"bytes32","name":"weight","type":"bytes32"}],"internalType":"struct SmartHealth.PatientSummary","name":"","type":"tuple"}],"stateMutability":"view","type":"function"},{"inputs":[],"name":"getPatientVitals","outputs":[{"components":[{"internalType":"bytes32","name":"heartRate","type":"bytes32"},{"internalType":"bytes32","name":"bloodPressure","type":"bytes32"},{"internalType":"bytes32","name":"oxygenSat","type":"bytes32"},{"internalType":"bytes32","name":"temperature","type":"bytes32"}],"internalType":"struct SmartHealth.PatientVitals","name":"","type":"tuple"}],"stateMutability":"view","type":"function"},{"inputs":[{"internalType":"bytes32[]","name":"requestorInfo","type":"bytes32[]"}],"name":"getPatientVitalsHCP","outputs":[{"components":[{"internalType":"bytes32","name":"heartRate","type":"bytes32"},{"internalType":"bytes32","name":"bloodPressure","type":"bytes32"},{"internalType":"bytes32","name":"oxygenSat","type":"bytes32"},{"internalType":"bytes32","name":"temperature","type":"bytes32"}],"internalType":"struct SmartHealth.PatientVitals","name":"","type":"tuple"}],"stateMutability":"view","type":"function"}],"evm":{"bytecode":{"linkReferences":{},"object":"60806040523480156200001157600080fd5b5060405162000c3938038062000c39833981810160405281019062000037919062000381565b336000806101000a81548173ffffffffffffffffffffffffffffffffffffffff021916908373ffffffffffffffffffffffffffffffffffffffff160217905550806000815181106200008e576200008d620003d2565b5b602002602001015160026000018190555080600181518110620000b657620000b5620003d2565b5b602002602001015160026001018190555080600281518110620000de57620000dd620003d2565b5b6020026020010151600280018190555080600381518110620001055762000104620003d2565b5b6020026020010151600260030181905550806004815181106200012d576200012c620003d2565b5b602002602001015160066000018190555080600581518110620001555762000154620003d2565b5b6020026020010151600660010181905550806006815181106200017d576200017c620003d2565b5b602002602001015160066002018190555080600781518110620001a557620001a4620003d2565b5b60200260200101516006600301819055505062000401565b6000604051905090565b600080fd5b600080fd5b600080fd5b6000601f19601f8301169050919050565b7f4e487b7100000000000000000000000000000000000000000000000000000000600052604160045260246000fd5b6200022182620001d6565b810181811067ffffffffffffffff82111715620002435762000242620001e7565b5b80604052505050565b600062000258620001bd565b905062000266828262000216565b919050565b600067ffffffffffffffff821115620002895762000288620001e7565b5b602082029050602081019050919050565b600080fd5b6000819050919050565b620002b4816200029f565b8114620002c057600080fd5b50565b600081519050620002d481620002a9565b92915050565b6000620002f1620002eb846200026b565b6200024c565b905080838252602082019050602084028301858111156200031757620003166200029a565b5b835b818110156200034457806200032f8882620002c3565b84526020840193505060208101905062000319565b5050509392505050565b600082601f830112620003665762000365620001d1565b5b815162000378848260208601620002da565b91505092915050565b6000602082840312156200039a5762000399620001c7565b5b600082015167ffffffffffffffff811115620003bb57620003ba620001cc565b5b620003c9848285016200034e565b91505092915050565b7f4e487b7100000000000000000000000000000000000000000000000000000000600052603260045260246000fd5b61082880620004116000396000f3fe608060405234801561001057600080fd5b50600436106100575760003560e01c8063503a5f2f1461005c5780636f0a94931461007a578063a7c6b37b146100aa578063b690a8c5146100c8578063d6f069e3146100f8575b600080fd5b610064610114565b6040516100719190610556565b60405180910390f35b610094600480360381019061008f919061070a565b6101ae565b6040516100a19190610556565b60405180910390f35b6100b2610241565b6040516100bf91906107a8565b60405180910390f35b6100e260048036038101906100dd919061070a565b6102db565b6040516100ef91906107a8565b60405180910390f35b610112600480360381019061010d919061070a565b61036e565b005b61011c610480565b60008054906101000a900473ffffffffffffffffffffffffffffffffffffffff1673ffffffffffffffffffffffffffffffffffffffff163373ffffffffffffffffffffffffffffffffffffffff161461017457600080fd5b6006604051806080016040529081600082015481526020016001820154815260200160028201548152602001600382015481525050905090565b6101b6610480565b81806000815181106101cb576101ca6107c3565b5b6020026020010151600a6000815481106101e8576101e76107c3565b5b9060005260206000209060030201600001541461020457600080fd5b6006604051806080016040529081600082015481526020016001820154815260200160028201548152602001600382015481525050915050919050565b6102496104b4565b60008054906101000a900473ffffffffffffffffffffffffffffffffffffffff1673ffffffffffffffffffffffffffffffffffffffff163373ffffffffffffffffffffffffffffffffffffffff16146102a157600080fd5b6002604051806080016040529081600082015481526020016001820154815260200160028201548152602001600382015481525050905090565b6102e36104b4565b81806000815181106102f8576102f76107c3565b5b6020026020010151600a600081548110610315576103146107c3565b5b9060005260206000209060030201600001541461033157600080fd5b6002604051806080016040529081600082015481526020016001820154815260200160028201548152602001600382015481525050915050919050565b60008054906101000a900473ffffffffffffffffffffffffffffffffffffffff1673ffffffffffffffffffffffffffffffffffffffff163373ffffffffffffffffffffffffffffffffffffffff16146103c657600080fd5b600a6040518060600160405280836000815181106103e7576103e66107c3565b5b6020026020010151815260200183600181518110610408576104076107c3565b5b6020026020010151815260200183600281518110610429576104286107c3565b5b60200260200101518152509080600181540180825580915050600190039060005260206000209060030201600090919091909150600082015181600001556020820151816001015560408201518160020155505050565b6040518060800160405280600080191681526020016000801916815260200160008019168152602001600080191681525090565b6040518060800160405280600080191681526020016000801916815260200160008019168152602001600080191681525090565b6000819050919050565b6104fb816104e8565b82525050565b60808201600082015161051760008501826104f2565b50602082015161052a60208501826104f2565b50604082015161053d60408501826104f2565b50606082015161055060608501826104f2565b50505050565b600060808201905061056b6000830184610501565b92915050565b6000604051905090565b600080fd5b600080fd5b600080fd5b6000601f19601f8301169050919050565b7f4e487b7100000000000000000000000000000000000000000000000000000000600052604160045260246000fd5b6105d38261058a565b810181811067ffffffffffffffff821117156105f2576105f161059b565b5b80604052505050565b6000610605610571565b905061061182826105ca565b919050565b600067ffffffffffffffff8211156106315761063061059b565b5b602082029050602081019050919050565b600080fd5b610650816104e8565b811461065b57600080fd5b50565b60008135905061066d81610647565b92915050565b600061068661068184610616565b6105fb565b905080838252602082019050602084028301858111156106a9576106a8610642565b5b835b818110156106d257806106be888261065e565b8452602084019350506020810190506106ab565b5050509392505050565b600082601f8301126106f1576106f0610585565b5b8135610701848260208601610673565b91505092915050565b6000602082840312156107205761071f61057b565b5b600082013567ffffffffffffffff81111561073e5761073d610580565b5b61074a848285016106dc565b91505092915050565b60808201600082015161076960008501826104f2565b50602082015161077c60208501826104f2565b50604082015161078f60408501826104f2565b5060608201516107a260608501826104f2565b50505050565b60006080820190506107bd6000830184610753565b92915050565b7f4e487b7100000000000000000000000000000000000000000000000000000000600052603260045260246000fdfea264697066735822122077c18df9ab55f0fa93bc49bf2c4cea03f0750335f01f4f3e789ac116cb33f36f64736f6c63430008110033","opcodes":"PUSH1 0x80 PUSH1 0x40 MSTORE CALLVALUE DUP1 ISZERO PUSH3 0x11 JUMPI PUSH1 0x0 DUP1 REVERT JUMPDEST POP PUSH1 0x40 MLOAD PUSH3 0xC39 CODESIZE SUB DUP1 PUSH3 0xC39 DUP4 CODECOPY DUP2 DUP2 ADD PUSH1 0x40 MSTORE DUP2 ADD SWAP1 PUSH3 0x37 SWAP2 SWAP1 PUSH3 0x381 JUMP JUMPDEST CALLER PUSH1 0x0 DUP1 PUSH2 0x100 EXP DUP2 SLOAD DUP2 PUSH20 0xFFFFFFFFFFFFFFFFFFFFFFFFFFFFFFFFFFFFFFFF MUL NOT AND SWAP1 DUP4 PUSH20 0xFFFFFFFFFFFFFFFFFFFFFFFFFFFFFFFFFFFFFFFF AND MUL OR SWAP1 SSTORE POP DUP1 PUSH1 0x0 DUP2 MLOAD DUP2 LT PUSH3 0x8E JUMPI PUSH3 0x8D PUSH3 0x3D2 JUMP JUMPDEST JUMPDEST PUSH1 0x20 MUL PUSH1 0x20 ADD ADD MLOAD PUSH1 0x2 PUSH1 0x0 ADD DUP2 SWAP1 SSTORE POP DUP1 PUSH1 0x1 DUP2 MLOAD DUP2 LT PUSH3 0xB6 JUMPI PUSH3 0xB5 PUSH3 0x3D2 JUMP JUMPDEST JUMPDEST PUSH1 0x20 MUL PUSH1 0x20 ADD ADD MLOAD PUSH1 0x2 PUSH1 0x1 ADD DUP2 SWAP1 SSTORE POP DUP1 PUSH1 0x2 DUP2 MLOAD DUP2 LT PUSH3 0xDE JUMPI PUSH3 0xDD PUSH3 0x3D2 JUMP JUMPDEST JUMPDEST PUSH1 0x20 MUL PUSH1 0x20 ADD ADD MLOAD PUSH1 0x2 DUP1 ADD DUP2 SWAP1 SSTORE POP DUP1 PUSH1 0x3 DUP2 MLOAD DUP2 LT PUSH3 0x105 JUMPI PUSH3 0x104 PUSH3 0x3D2 JUMP JUMPDEST JUMPDEST PUSH1 0x20 MUL PUSH1 0x20 ADD ADD MLOAD PUSH1 0x2 PUSH1 0x3 ADD DUP2 SWAP1 SSTORE POP DUP1 PUSH1 0x4 DUP2 MLOAD DUP2 LT PUSH3 0x12D JUMPI PUSH3 0x12C PUSH3 0x3D2 JUMP JUMPDEST JUMPDEST PUSH1 0x20 MUL PUSH1 0x20 ADD ADD MLOAD PUSH1 0x6 PUSH1 0x0 ADD DUP2 SWAP1 SSTORE POP DUP1 PUSH1 0x5 DUP2 MLOAD DUP2 LT PUSH3 0x155 JUMPI PUSH3 0x154 PUSH3 0x3D2 JUMP JUMPDEST JUMPDEST PUSH1 0x20 MUL PUSH1 0x20 ADD ADD MLOAD PUSH1 0x6 PUSH1 0x1 ADD DUP2 SWAP1 SSTORE POP DUP1 PUSH1 0x6 DUP2 MLOAD DUP2 LT PUSH3 0x17D JUMPI PUSH3 0x17C PUSH3 0x3D2 JUMP JUMPDEST JUMPDEST PUSH1 0x20 MUL PUSH1 0x20 ADD ADD MLOAD PUSH1 0x6 PUSH1 0x2 ADD DUP2 SWAP1 SSTORE POP DUP1 PUSH1 0x7 DUP2 MLOAD DUP2 LT PUSH3 0x1A5 JUMPI PUSH3 0x1A4 PUSH3 0x3D2 JUMP JUMPDEST JUMPDEST PUSH1 0x20 MUL PUSH1 0x20 ADD ADD MLOAD PUSH1 0x6 PUSH1 0x3 ADD DUP2 SWAP1 SSTORE POP POP PUSH3 0x401 JUMP JUMPDEST PUSH1 0x0 PUSH1 0x40 MLOAD SWAP1 POP SWAP1 JUMP JUMPDEST PUSH1 0x0 DUP1 REVERT JUMPDEST PUSH1 0x0 DUP1 REVERT JUMPDEST PUSH1 0x0 DUP1 REVERT JUMPDEST PUSH1 0x0 PUSH1 0x1F NOT PUSH1 0x1F DUP4 ADD AND SWAP1 POP SWAP2 SWAP1 POP JUMP JUMPDEST PUSH32 0x4E487B7100000000000000000000000000000000000000000000000000000000 PUSH1 0x0 MSTORE PUSH1 0x41 PUSH1 0x4 MSTORE PUSH1 0x24 PUSH1 0x0 REVERT JUMPDEST PUSH3 0x221 DUP3 PUSH3 0x1D6 JUMP JUMPDEST DUP2 ADD DUP2 DUP2 LT PUSH8 0xFFFFFFFFFFFFFFFF DUP3 GT OR ISZERO PUSH3 0x243 JUMPI PUSH3 0x242 PUSH3 0x1E7 JUMP JUMPDEST JUMPDEST DUP1 PUSH1 0x40 MSTORE POP POP POP JUMP JUMPDEST PUSH1 0x0 PUSH3 0x258 PUSH3 0x1BD JUMP JUMPDEST SWAP1 POP PUSH3 0x266 DUP3 DUP3 PUSH3 0x216 JUMP JUMPDEST SWAP2 SWAP1 POP JUMP JUMPDEST PUSH1 0x0 PUSH8 0xFFFFFFFFFFFFFFFF DUP3 GT ISZERO PUSH3 0x289 JUMPI PUSH3 0x288 PUSH3 0x1E7 JUMP JUMPDEST JUMPDEST PUSH1 0x20 DUP3 MUL SWAP1 POP PUSH1 0x20 DUP2 ADD SWAP1 POP SWAP2 SWAP1 POP JUMP JUMPDEST PUSH1 0x0 DUP1 REVERT JUMPDEST PUSH1 0x0 DUP2 SWAP1 POP SWAP2 SWAP1 POP JUMP JUMPDEST PUSH3 0x2B4 DUP2 PUSH3 0x29F JUMP JUMPDEST DUP2 EQ PUSH3 0x2C0 JUMPI PUSH1 0x0 DUP1 REVERT JUMPDEST POP JUMP JUMPDEST PUSH1 0x0 DUP2 MLOAD SWAP1 POP PUSH3 0x2D4 DUP2 PUSH3 0x2A9 JUMP JUMPDEST SWAP3 SWAP2 POP POP JUMP JUMPDEST PUSH1 0x0 PUSH3 0x2F1 PUSH3 0x2EB DUP5 PUSH3 0x26B JUMP JUMPDEST PUSH3 0x24C JUMP JUMPDEST SWAP1 POP DUP1 DUP4 DUP3 MSTORE PUSH1 0x20 DUP3 ADD SWAP1 POP PUSH1 0x20 DUP5 MUL DUP4 ADD DUP6 DUP2 GT ISZERO PUSH3 0x317 JUMPI PUSH3 0x316 PUSH3 0x29A JUMP JUMPDEST JUMPDEST DUP4 JUMPDEST DUP2 DUP2 LT ISZERO PUSH3 0x344 JUMPI DUP1 PUSH3 0x32F DUP9 DUP3 PUSH3 0x2C3 JUMP JUMPDEST DUP5 MSTORE PUSH1 0x20 DUP5 ADD SWAP4 POP POP PUSH1 0x20 DUP2 ADD SWAP1 POP PUSH3 0x319 JUMP JUMPDEST POP POP POP SWAP4 SWAP3 POP POP POP JUMP JUMPDEST PUSH1 0x0 DUP3 PUSH1 0x1F DUP4 ADD SLT PUSH3 0x366 JUMPI PUSH3 0x365 PUSH3 0x1D1 JUMP JUMPDEST JUMPDEST DUP2 MLOAD PUSH3 0x378 DUP5 DUP3 PUSH1 0x20 DUP7 ADD PUSH3 0x2DA JUMP JUMPDEST SWAP2 POP POP SWAP3 SWAP2 POP POP JUMP JUMPDEST PUSH1 0x0 PUSH1 0x20 DUP3 DUP5 SUB SLT ISZERO PUSH3 0x39A JUMPI PUSH3 0x399 PUSH3 0x1C7 JUMP JUMPDEST JUMPDEST PUSH1 0x0 DUP3 ADD MLOAD PUSH8 0xFFFFFFFFFFFFFFFF DUP2 GT ISZERO PUSH3 0x3BB JUMPI PUSH3 0x3BA PUSH3 0x1CC JUMP JUMPDEST JUMPDEST PUSH3 0x3C9 DUP5 DUP3 DUP6 ADD PUSH3 0x34E JUMP JUMPDEST SWAP2 POP POP SWAP3 SWAP2 POP POP JUMP JUMPDEST PUSH32 0x4E487B7100000000000000000000000000000000000000000000000000000000 PUSH1 0x0 MSTORE PUSH1 0x32 PUSH1 0x4 MSTORE PUSH1 0x24 PUSH1 0x0 REVERT JUMPDEST PUSH2 0x828 DUP1 PUSH3 0x411 PUSH1 0x0 CODECOPY PUSH1 0x0 RETURN INVALID PUSH1 0x80 PUSH1 0x40 MSTORE CALLVALUE DUP1 ISZERO PUSH2 0x10 JUMPI PUSH1 0x0 DUP1 REVERT JUMPDEST POP PUSH1 0x4 CALLDATASIZE LT PUSH2 0x57 JUMPI PUSH1 0x0 CALLDATALOAD PUSH1 0xE0 SHR DUP1 PUSH4 0x503A5F2F EQ PUSH2 0x5C JUMPI DUP1 PUSH4 0x6F0A9493 EQ PUSH2 0x7A JUMPI DUP1 PUSH4 0xA7C6B37B EQ PUSH2 0xAA JUMPI DUP1 PUSH4 0xB690A8C5 EQ PUSH2 0xC8 JUMPI DUP1 PUSH4 0xD6F069E3 EQ PUSH2 0xF8 JUMPI JUMPDEST PUSH1 0x0 DUP1 REVERT JUMPDEST PUSH2 0x64 PUSH2 0x114 JUMP JUMPDEST PUSH1 0x40 MLOAD PUSH2 0x71 SWAP2 SWAP1 PUSH2 0x556 JUMP JUMPDEST PUSH1 0x40 MLOAD DUP1 SWAP2 SUB SWAP1 RETURN JUMPDEST PUSH2 0x94 PUSH1 0x4 DUP1 CALLDATASIZE SUB DUP2 ADD SWAP1 PUSH2 0x8F SWAP2 SWAP1 PUSH2 0x70A JUMP JUMPDEST PUSH2 0x1AE JUMP JUMPDEST PUSH1 0x40 MLOAD PUSH2 0xA1 SWAP2 SWAP1 PUSH2 0x556 JUMP JUMPDEST PUSH1 0x40 MLOAD DUP1 SWAP2 SUB SWAP1 RETURN JUMPDEST PUSH2 0xB2 PUSH2 0x241 JUMP JUMPDEST PUSH1 0x40 MLOAD PUSH2 0xBF SWAP2 SWAP1 PUSH2 0x7A8 JUMP JUMPDEST PUSH1 0x40 MLOAD DUP1 SWAP2 SUB SWAP1 RETURN JUMPDEST PUSH2 0xE2 PUSH1 0x4 DUP1 CALLDATASIZE SUB DUP2 ADD SWAP1 PUSH2 0xDD SWAP2 SWAP1 PUSH2 0x70A JUMP JUMPDEST PUSH2 0x2DB JUMP JUMPDEST PUSH1 0x40 MLOAD PUSH2 0xEF SWAP2 SWAP1 PUSH2 0x7A8 JUMP JUMPDEST PUSH1 0x40 MLOAD DUP1 SWAP2 SUB SWAP1 RETURN JUMPDEST PUSH2 0x112 PUSH1 0x4 DUP1 CALLDATASIZE SUB DUP2 ADD SWAP1 PUSH2 0x10D SWAP2 SWAP1 PUSH2 0x70A JUMP JUMPDEST PUSH2 0x36E JUMP JUMPDEST STOP JUMPDEST PUSH2 0x11C PUSH2 0x480 JUMP JUMPDEST PUSH1 0x0 DUP1 SLOAD SWAP1 PUSH2 0x100 EXP SWAP1 DIV PUSH20 0xFFFFFFFFFFFFFFFFFFFFFFFFFFFFFFFFFFFFFFFF AND PUSH20 0xFFFFFFFFFFFFFFFFFFFFFFFFFFFFFFFFFFFFFFFF AND CALLER PUSH20 0xFFFFFFFFFFFFFFFFFFFFFFFFFFFFFFFFFFFFFFFF AND EQ PUSH2 0x174 JUMPI PUSH1 0x0 DUP1 REVERT JUMPDEST PUSH1 0x6 PUSH1 0x40 MLOAD DUP1 PUSH1 0x80 ADD PUSH1 0x40 MSTORE SWAP1 DUP2 PUSH1 0x0 DUP3 ADD SLOAD DUP2 MSTORE PUSH1 0x20 ADD PUSH1 0x1 DUP3 ADD SLOAD DUP2 MSTORE PUSH1 0x20 ADD PUSH1 0x2 DUP3 ADD SLOAD DUP2 MSTORE PUSH1 0x20 ADD PUSH1 0x3 DUP3 ADD SLOAD DUP2 MSTORE POP POP SWAP1 POP SWAP1 JUMP JUMPDEST PUSH2 0x1B6 PUSH2 0x480 JUMP JUMPDEST DUP2 DUP1 PUSH1 0x0 DUP2 MLOAD DUP2 LT PUSH2 0x1CB JUMPI PUSH2 0x1CA PUSH2 0x7C3 JUMP JUMPDEST JUMPDEST PUSH1 0x20 MUL PUSH1 0x20 ADD ADD MLOAD PUSH1 0xA PUSH1 0x0 DUP2 SLOAD DUP2 LT PUSH2 0x1E8 JUMPI PUSH2 0x1E7 PUSH2 0x7C3 JUMP JUMPDEST JUMPDEST SWAP1 PUSH1 0x0 MSTORE PUSH1 0x20 PUSH1 0x0 KECCAK256 SWAP1 PUSH1 0x3 MUL ADD PUSH1 0x0 ADD SLOAD EQ PUSH2 0x204 JUMPI PUSH1 0x0 DUP1 REVERT JUMPDEST PUSH1 0x6 PUSH1 0x40 MLOAD DUP1 PUSH1 0x80 ADD PUSH1 0x40 MSTORE SWAP1 DUP2 PUSH1 0x0 DUP3 ADD SLOAD DUP2 MSTORE PUSH1 0x20 ADD PUSH1 0x1 DUP3 ADD SLOAD DUP2 MSTORE PUSH1 0x20 ADD PUSH1 0x2 DUP3 ADD SLOAD DUP2 MSTORE PUSH1 0x20 ADD PUSH1 0x3 DUP3 ADD SLOAD DUP2 MSTORE POP POP SWAP2 POP POP SWAP2 SWAP1 POP JUMP JUMPDEST PUSH2 0x249 PUSH2 0x4B4 JUMP JUMPDEST PUSH1 0x0 DUP1 SLOAD SWAP1 PUSH2 0x100 EXP SWAP1 DIV PUSH20 0xFFFFFFFFFFFFFFFFFFFFFFFFFFFFFFFFFFFFFFFF AND PUSH20 0xFFFFFFFFFFFFFFFFFFFFFFFFFFFFFFFFFFFFFFFF AND CALLER PUSH20 0xFFFFFFFFFFFFFFFFFFFFFFFFFFFFFFFFFFFFFFFF AND EQ PUSH2 0x2A1 JUMPI PUSH1 0x0 DUP1 REVERT JUMPDEST PUSH1 0x2 PUSH1 0x40 MLOAD DUP1 PUSH1 0x80 ADD PUSH1 0x40 MSTORE SWAP1 DUP2 PUSH1 0x0 DUP3 ADD SLOAD DUP2 MSTORE PUSH1 0x20 ADD PUSH1 0x1 DUP3 ADD SLOAD DUP2 MSTORE PUSH1 0x20 ADD PUSH1 0x2 DUP3 ADD SLOAD DUP2 MSTORE PUSH1 0x20 ADD PUSH1 0x3 DUP3 ADD SLOAD DUP2 MSTORE POP POP SWAP1 POP SWAP1 JUMP JUMPDEST PUSH2 0x2E3 PUSH2 0x4B4 JUMP JUMPDEST DUP2 DUP1 PUSH1 0x0 DUP2 MLOAD DUP2 LT PUSH2 0x2F8 JUMPI PUSH2 0x2F7 PUSH2 0x7C3 JUMP JUMPDEST JUMPDEST PUSH1 0x20 MUL PUSH1 0x20 ADD ADD MLOAD PUSH1 0xA PUSH1 0x0 DUP2 SLOAD DUP2 LT PUSH2 0x315 JUMPI PUSH2 0x314 PUSH2 0x7C3 JUMP JUMPDEST JUMPDEST SWAP1 PUSH1 0x0 MSTORE PUSH1 0x20 PUSH1 0x0 KECCAK256 SWAP1 PUSH1 0x3 MUL ADD PUSH1 0x0 ADD SLOAD EQ PUSH2 0x331 JUMPI PUSH1 0x0 DUP1 REVERT JUMPDEST PUSH1 0x2 PUSH1 0x40 MLOAD DUP1 PUSH1 0x80 ADD PUSH1 0x40 MSTORE SWAP1 DUP2 PUSH1 0x0 DUP3 ADD SLOAD DUP2 MSTORE PUSH1 0x20 ADD PUSH1 0x1 DUP3 ADD SLOAD DUP2 MSTORE PUSH1 0x20 ADD PUSH1 0x2 DUP3 ADD SLOAD DUP2 MSTORE PUSH1 0x20 ADD PUSH1 0x3 DUP3 ADD SLOAD DUP2 MSTORE POP POP SWAP2 POP POP SWAP2 SWAP1 POP JUMP JUMPDEST PUSH1 0x0 DUP1 SLOAD SWAP1 PUSH2 0x100 EXP SWAP1 DIV PUSH20 0xFFFFFFFFFFFFFFFFFFFFFFFFFFFFFFFFFFFFFFFF AND PUSH20 0xFFFFFFFFFFFFFFFFFFFFFFFFFFFFFFFFFFFFFFFF AND CALLER PUSH20 0xFFFFFFFFFFFFFFFFFFFFFFFFFFFFFFFFFFFFFFFF AND EQ PUSH2 0x3C6 JUMPI PUSH1 0x0 DUP1 REVERT JUMPDEST PUSH1 0xA PUSH1 0x40 MLOAD DUP1 PUSH1 0x60 ADD PUSH1 0x40 MSTORE DUP1 DUP4 PUSH1 0x0 DUP2 MLOAD DUP2 LT PUSH2 0x3E7 JUMPI PUSH2 0x3E6 PUSH2 0x7C3 JUMP JUMPDEST JUMPDEST PUSH1 0x20 MUL PUSH1 0x20 ADD ADD MLOAD DUP2 MSTORE PUSH1 0x20 ADD DUP4 PUSH1 0x1 DUP2 MLOAD DUP2 LT PUSH2 0x408 JUMPI PUSH2 0x407 PUSH2 0x7C3 JUMP JUMPDEST JUMPDEST PUSH1 0x20 MUL PUSH1 0x20 ADD ADD MLOAD DUP2 MSTORE PUSH1 0x20 ADD DUP4 PUSH1 0x2 DUP2 MLOAD DUP2 LT PUSH2 0x429 JUMPI PUSH2 0x428 PUSH2 0x7C3 JUMP JUMPDEST JUMPDEST PUSH1 0x20 MUL PUSH1 0x20 ADD ADD MLOAD DUP2 MSTORE POP SWAP1 DUP1 PUSH1 0x1 DUP2 SLOAD ADD DUP1 DUP3 SSTORE DUP1 SWAP2 POP POP PUSH1 0x1 SWAP1 SUB SWAP1 PUSH1 0x0 MSTORE PUSH1 0x20 PUSH1 0x0 KECCAK256 SWAP1 PUSH1 0x3 MUL ADD PUSH1 0x0 SWAP1 SWAP2 SWAP1 SWAP2 SWAP1 SWAP2 POP PUSH1 0x0 DUP3 ADD MLOAD DUP2 PUSH1 0x0 ADD SSTORE PUSH1 0x20 DUP3 ADD MLOAD DUP2 PUSH1 0x1 ADD SSTORE PUSH1 0x40 DUP3 ADD MLOAD DUP2 PUSH1 0x2 ADD SSTORE POP POP POP JUMP JUMPDEST PUSH1 0x40 MLOAD DUP1 PUSH1 0x80 ADD PUSH1 0x40 MSTORE DUP1 PUSH1 0x0 DUP1 NOT AND DUP2 MSTORE PUSH1 0x20 ADD PUSH1 0x0 DUP1 NOT AND DUP2 MSTORE PUSH1 0x20 ADD PUSH1 0x0 DUP1 NOT AND DUP2 MSTORE PUSH1 0x20 ADD PUSH1 0x0 DUP1 NOT AND DUP2 MSTORE POP SWAP1 JUMP JUMPDEST PUSH1 0x40 MLOAD DUP1 PUSH1 0x80 ADD PUSH1 0x40 MSTORE DUP1 PUSH1 0x0 DUP1 NOT AND DUP2 MSTORE PUSH1 0x20 ADD PUSH1 0x0 DUP1 NOT AND DUP2 MSTORE PUSH1 0x20 ADD PUSH1 0x0 DUP1 NOT AND DUP2 MSTORE PUSH1 0x20 ADD PUSH1 0x0 DUP1 NOT AND DUP2 MSTORE POP SWAP1 JUMP JUMPDEST PUSH1 0x0 DUP2 SWAP1 POP SWAP2 SWAP1 POP JUMP JUMPDEST PUSH2 0x4FB DUP2 PUSH2 0x4E8 JUMP JUMPDEST DUP3 MSTORE POP POP JUMP JUMPDEST PUSH1 0x80 DUP3 ADD PUSH1 0x0 DUP3 ADD MLOAD PUSH2 0x517 PUSH1 0x0 DUP6 ADD DUP3 PUSH2 0x4F2 JUMP JUMPDEST POP PUSH1 0x20 DUP3 ADD MLOAD PUSH2 0x52A PUSH1 0x20 DUP6 ADD DUP3 PUSH2 0x4F2 JUMP JUMPDEST POP PUSH1 0x40 DUP3 ADD MLOAD PUSH2 0x53D PUSH1 0x40 DUP6 ADD DUP3 PUSH2 0x4F2 JUMP JUMPDEST POP PUSH1 0x60 DUP3 ADD MLOAD PUSH2 0x550 PUSH1 0x60 DUP6 ADD DUP3 PUSH2 0x4F2 JUMP JUMPDEST POP POP POP POP JUMP JUMPDEST PUSH1 0x0 PUSH1 0x80 DUP3 ADD SWAP1 POP PUSH2 0x56B PUSH1 0x0 DUP4 ADD DUP5 PUSH2 0x501 JUMP JUMPDEST SWAP3 SWAP2 POP POP JUMP JUMPDEST PUSH1 0x0 PUSH1 0x40 MLOAD SWAP1 POP SWAP1 JUMP JUMPDEST PUSH1 0x0 DUP1 REVERT JUMPDEST PUSH1 0x0 DUP1 REVERT JUMPDEST PUSH1 0x0 DUP1 REVERT JUMPDEST PUSH1 0x0 PUSH1 0x1F NOT PUSH1 0x1F DUP4 ADD AND SWAP1 POP SWAP2 SWAP1 POP JUMP JUMPDEST PUSH32 0x4E487B7100000000000000000000000000000000000000000000000000000000 PUSH1 0x0 MSTORE PUSH1 0x41 PUSH1 0x4 MSTORE PUSH1 0x24 PUSH1 0x0 REVERT JUMPDEST PUSH2 0x5D3 DUP3 PUSH2 0x58A JUMP JUMPDEST DUP2 ADD DUP2 DUP2 LT PUSH8 0xFFFFFFFFFFFFFFFF DUP3 GT OR ISZERO PUSH2 0x5F2 JUMPI PUSH2 0x5F1 PUSH2 0x59B JUMP JUMPDEST JUMPDEST DUP1 PUSH1 0x40 MSTORE POP POP POP JUMP JUMPDEST PUSH1 0x0 PUSH2 0x605 PUSH2 0x571 JUMP JUMPDEST SWAP1 POP PUSH2 0x611 DUP3 DUP3 PUSH2 0x5CA JUMP JUMPDEST SWAP2 SWAP1 POP JUMP JUMPDEST PUSH1 0x0 PUSH8 0xFFFFFFFFFFFFFFFF DUP3 GT ISZERO PUSH2 0x631 JUMPI PUSH2 0x630 PUSH2 0x59B JUMP JUMPDEST JUMPDEST PUSH1 0x20 DUP3 MUL SWAP1 POP PUSH1 0x20 DUP2 ADD SWAP1 POP SWAP2 SWAP1 POP JUMP JUMPDEST PUSH1 0x0 DUP1 REVERT JUMPDEST PUSH2 0x650 DUP2 PUSH2 0x4E8 JUMP JUMPDEST DUP2 EQ PUSH2 0x65B JUMPI PUSH1 0x0 DUP1 REVERT JUMPDEST POP JUMP JUMPDEST PUSH1 0x0 DUP2 CALLDATALOAD SWAP1 POP PUSH2 0x66D DUP2 PUSH2 0x647 JUMP JUMPDEST SWAP3 SWAP2 POP POP JUMP JUMPDEST PUSH1 0x0 PUSH2 0x686 PUSH2 0x681 DUP5 PUSH2 0x616 JUMP JUMPDEST PUSH2 0x5FB JUMP JUMPDEST SWAP1 POP DUP1 DUP4 DUP3 MSTORE PUSH1 0x20 DUP3 ADD SWAP1 POP PUSH1 0x20 DUP5 MUL DUP4 ADD DUP6 DUP2 GT ISZERO PUSH2 0x6A9 JUMPI PUSH2 0x6A8 PUSH2 0x642 JUMP JUMPDEST JUMPDEST DUP4 JUMPDEST DUP2 DUP2 LT ISZERO PUSH2 0x6D2 JUMPI DUP1 PUSH2 0x6BE DUP9 DUP3 PUSH2 0x65E JUMP JUMPDEST DUP5 MSTORE PUSH1 0x20 DUP5 ADD SWAP4 POP POP PUSH1 0x20 DUP2 ADD SWAP1 POP PUSH2 0x6AB JUMP JUMPDEST POP POP POP SWAP4 SWAP3 POP POP POP JUMP JUMPDEST PUSH1 0x0 DUP3 PUSH1 0x1F DUP4 ADD SLT PUSH2 0x6F1 JUMPI PUSH2 0x6F0 PUSH2 0x585 JUMP JUMPDEST JUMPDEST DUP2 CALLDATALOAD PUSH2 0x701 DUP5 DUP3 PUSH1 0x20 DUP7 ADD PUSH2 0x673 JUMP JUMPDEST SWAP2 POP POP SWAP3 SWAP2 POP POP JUMP JUMPDEST PUSH1 0x0 PUSH1 0x20 DUP3 DUP5 SUB SLT ISZERO PUSH2 0x720 JUMPI PUSH2 0x71F PUSH2 0x57B JUMP JUMPDEST JUMPDEST PUSH1 0x0 DUP3 ADD CALLDATALOAD PUSH8 0xFFFFFFFFFFFFFFFF DUP2 GT ISZERO PUSH2 0x73E JUMPI PUSH2 0x73D PUSH2 0x580 JUMP JUMPDEST JUMPDEST PUSH2 0x74A DUP5 DUP3 DUP6 ADD PUSH2 0x6DC JUMP JUMPDEST SWAP2 POP POP SWAP3 SWAP2 POP POP JUMP JUMPDEST PUSH1 0x80 DUP3 ADD PUSH1 0x0 DUP3 ADD MLOAD PUSH2 0x769 PUSH1 0x0 DUP6 ADD DUP3 PUSH2 0x4F2 JUMP JUMPDEST POP PUSH1 0x20 DUP3 ADD MLOAD PUSH2 0x77C PUSH1 0x20 DUP6 ADD DUP3 PUSH2 0x4F2 JUMP JUMPDEST POP PUSH1 0x40 DUP3 ADD MLOAD PUSH2 0x78F PUSH1 0x40 DUP6 ADD DUP3 PUSH2 0x4F2 JUMP JUMPDEST POP PUSH1 0x60 DUP3 ADD MLOAD PUSH2 0x7A2 PUSH1 0x60 DUP6 ADD DUP3 PUSH2 0x4F2 JUMP JUMPDEST POP POP POP POP JUMP JUMPDEST PUSH1 0x0 PUSH1 0x80 DUP3 ADD SWAP1 POP PUSH2 0x7BD PUSH1 0x0 DUP4 ADD DUP5 PUSH2 0x753 JUMP JUMPDEST SWAP3 SWAP2 POP POP JUMP JUMPDEST PUSH32 0x4E487B7100000000000000000000000000000000000000000000000000000000 PUSH1 0x0 MSTORE PUSH1 0x32 PUSH1 0x4 MSTORE PUSH1 0x24 PUSH1 0x0 REVERT INVALID LOG2 PUSH5 0x6970667358 0x22 SLT KECCAK256 PUSH24 0xC18DF9AB55F0FA93BC49BF2C4CEA03F0750335F01F4F3E78 SWAP11 0xC1 AND 0xCB CALLER RETURN PUSH16 0x64736F6C634300081100330000000000 "},"methodIdentifiers":{"authorizeProvider(bytes32[])":"d6f069e3","getPatientSummary()":"a7c6b37b","getPatientSummaryHCP(bytes32[])":"b690a8c5","getPatientVitals()":"503a5f2f","getPatientVitalsHCP(bytes32[])":"6f0a9493"}}}}}